{"contracts/Certificate.sol":{"CertificateRegistry":{"abi":[{"inputs":[],"stateMutability":"nonpayable","type":"constructor"},{"anonymous":false,"inputs":[{"indexed":true,"internalType":"bytes32","name":"root","type":"bytes32"},{"indexed":false,"internalType":"string","name":"batchId","type":"string"}],"name":"BatchRootIssued","type":"event"},{"anonymous":false,"inputs":[{"indexed":true,"internalType":"bytes32","name":"certHash","type":"bytes32"},{"indexed":false,"internalType":"string","name":"studentId","type":"string"},{"indexed":false,"internalType":"string","name":"studentName","type":"string"}],"name":"CertificateIssued","type":"event"},{"anonymous":false,"inputs":[{"indexed":true,"internalType":"bytes32","name":"certHash","type":"bytes32"},{"indexed":false,"internalType":"string","name":"reason","type":"string"}],"name":"CertificateRevoked","type":"event"},{"anonymous":false,"inputs":[{"indexed":true,"internalType":"bytes32","name":"certHash","type":"bytes32"},{"indexed":false,"internalType":"bool","name":"isValid","type":"bool"}],"name":"CertificateVerified","type":"event"},{"anonymous":false,"inputs":[{"indexed":true,"internalType":"address","name":"account","type":"address"}],"name":"IssuerAdded","type":"event"},{"anonymous":false,"inputs":[{"indexed":true,"internalType":"address","name":"account","type":"address"}],"name":"IssuerRemoved","type":"event"},{"inputs":[],"name":"CERT_TYPEHASH","outputs":[{"internalType":"bytes32","name":"","type":"bytes32"}],"stateMutability":"view","type":"function"},{"inputs":[],"name":"DOMAIN_SEPARATOR","outputs":[{"internalType":"bytes32","name":"","type":"bytes32"}],"stateMutability":"view","type":"function"},{"inputs":[],"name":"EIP712_DOMAIN_TYPEHASH","outputs":[{"internalType":"bytes32","name":"","type":"bytes32"}],"stateMutability":"view","type":"function"},{"inputs":[{"internalType":"address","name":"account","type":"address"}],"name":"addIssuer","outputs":[],"stateMutability":"nonpayable","type":"function"},{"inputs":[],"name":"admin","outputs":[{"internalType":"address","name":"","type":"address"}],"stateMutability":"view","type":"function"},{"inputs":[{"internalType":"bytes32","name":"","type":"bytes32"}],"name":"batchRoots","outputs":[{"internalType":"bool","name":"","type":"bool"}],"stateMutability":"view","type":"function"},{"inputs":[{"internalType":"bytes32","name":"","type":"bytes32"}],"name":"certificates","outputs":[{"internalType":"string","name":"studentId","type":"string"},{"internalType":"string","name":"studentName","type":"string"},{"internalType":"string","name":"degree","type":"string"},{"internalType":"uint256","name":"issueDate","type":"uint256"},{"internalType":"bool","name":"isIssued","type":"bool"},{"internalType":"bool","name":"revoked","type":"bool"},{"internalType":"string","name":"revokeReason","type":"string"},{"internalType":"uint256","name":"revokeDate","type":"uint256"},{"internalType":"string","name":"ipfsCid","type":"string"}],"stateMutability":"view","type":"function"},{"inputs":[{"internalType":"bytes32","name":"_certHash","type":"bytes32"}],"name":"getCertificate","outputs":[{"internalType":"bool","name":"","type":"bool"},{"internalType":"string","name":"","type":"string"},{"internalType":"string","name":"","type":"string"},{"internalType":"string","name":"","type":"string"},{"internalType":"uint256","name":"","type":"uint256"},{"internalType":"bool","name":"","type":"bool"},{"internalType":"string","name":"","type":"string"},{"internalType":"uint256","name":"","type":"uint256"},{"internalType":"string","name":"","type":"string"}],"stateMutability":"view","type":"function"},{"inputs":[{"internalType":"address","name":"account","type":"address"}],"name":"isIssuer","outputs":[{"internalType":"bool","name":"","type":"bool"}],"stateMutability":"view","type":"function"},{"inputs":[{"internalType":"bytes32[]","name":"_hashes","type":"bytes32[]"},{"internalType":"string[]","name":"_studentIds","type":"string[]"},{"internalType":"string[]","name":"_studentNames","type":"string[]"},{"internalType":"string[]","name":"_degrees","type":"string[]"}],"name":"issueBatch","outputs":[],"stateMutability":"nonpayable","type":"function"},{"inputs":[{"internalType":"bytes32","name":"_root","type":"bytes32"},{"internalType":"string","name":"_batchId","type":"string"}],"name":"issueBatchRoot","outputs":[],"stateMutability":"nonpayable","type":"function"},{"inputs":[{"internalType":"bytes32","name":"_certHash","type":"bytes32"},{"internalType":"string","name":"_studentId","type":"string"},{"internalType":"string","name":"_studentName","type":"string"},{"internalType":"string","name":"_degree","type":"string"}],"name":"issueCertificate","outputs":[],"stateMutability":"nonpayable","type":"function"},{"inputs":[{"internalType":"bytes32","name":"_certHash","type":"bytes32"},{"internalType":"string","name":"_studentId","type":"string"},{"internalType":"string","name":"_studentName","type":"string"},{"internalType":"string","name":"_degree","type":"string"},{"internalType":"string","name":"_ipfsCid","type":"string"}],"name":"issueCertificateWithCid","outputs":[],"stateMutability":"nonpayable","type":"function"},{"inputs":[{"internalType":"bytes32","name":"_certHash","type":"bytes32"},{"internalType":"string","name":"_studentId","type":"string"},{"internalType":"string","name":"_studentName","type":"string"},{"internalType":"string","name":"_degree","type":"string"},{"internalType":"string","name":"_ipfsCid","type":"string"},{"internalType":"uint256","name":"_nonce","type":"uint256"},{"internalType":"bytes","name":"_signature","type":"bytes"}],"name":"issueWithSig","outputs":[],"stateMutability":"nonpayable","type":"function"},{"inputs":[{"internalType":"address","name":"","type":"address"}],"name":"issuers","outputs":[{"internalType":"bool","name":"","type":"bool"}],"stateMutability":"view","type":"function"},{"inputs":[{"internalType":"address","name":"","type":"address"}],"name":"nonces","outputs":[{"internalType":"uint256","name":"","type":"uint256"}],"stateMutability":"view","type":"function"},{"inputs":[{"internalType":"address","name":"account","type":"address"}],"name":"removeIssuer","outputs":[],"stateMutability":"nonpayable","type":"function"},{"inputs":[{"internalType":"bytes32","name":"_certHash","type":"bytes32"},{"internalType":"string","name":"_reason","type":"string"}],"name":"revokeCertificate","outputs":[],"stateMutability":"nonpayable","type":"function"},{"inputs":[{"internalType":"bytes32","name":"_certHash","type":"bytes32"}],"name":"simpleVerify","outputs":[{"internalType":"bool","name":"","type":"bool"}],"stateMutability":"view","type":"function"},{"inputs":[{"internalType":"bytes32","name":"_certHash","type":"bytes32"}],"name":"verifyCertificate","outputs":[{"internalType":"bool","name":"","type":"bool"},{"internalType":"string","name":"","type":"string"},{"internalType":"string","name":"","type":"string"},{"internalType":"string","name":"","type":"string"},{"internalType":"uint256","name":"","type":"uint256"}],"stateMutability":"view","type":"function"},{"inputs":[{"internalType":"bytes32","name":"_root","type":"bytes32"},{"internalType":"bytes32","name":"_leaf","type":"bytes32"},{"internalType":"bytes32[]","name":"_proof","type":"bytes32[]"}],"name":"verifyLeaf","outputs":[{"internalType":"bool","name":"","type":"bool"}],"stateMutability":"view","type":"function"}],"evm":{"bytecode":{"linkReferences":{},"object":"608060408181523461010857601360206000933360018060a01b031986541617855533855260018252838520600160ff1982541617905561003f8161010d565b828152017f4365727469666963617465526567697374727900000000000000000000000000815220906001602082516100778161010d565b82815201603160f81b8152209080519160208301937f8b73c3c69bb8fe3d512ecc4cf759cc79239f7b179b0ffacaa9a75d522b39400f85528284015260608301524660808301523060a083015260a0825260c082019382851060018060401b038611176100f45750839052519020600355611b2e908161013f8239f35b634e487b7160e01b81526041600452602490fd5b600080fd5b604081019081106001600160401b0382111761012857604052565b634e487b7160e01b600052604160045260246000fdfe6080604052600436101561001257600080fd5b60003560e01c806303b3500a1461016257806320694db01461015d5780633644e5151461015857806338a7543e146101305780633aa247421461015357806346f639131461014e57806347bc7093146101495780635bf4adfb14610144578063742f06881461013f5780637ecebe001461013a578063850c176814610135578063877b9a67146101305780639fef5b071461012b578063a02006e514610126578063a246b96814610121578063ab740d391461011c578063c7977be714610117578063d8e4a88a14610112578063e7a315a41461010d578063f333fe08146101085763f851a4401461010357600080fd5b610ec1565b610dd3565b610d3f565b610cce565b610c93565b610bc0565b6109d2565b610932565b610831565b610247565b6107c5565b610796565b61070a565b610488565b6103f7565b61036f565b61027b565b610229565b6101c4565b3461019d57600036600319011261019d5760206040517f18f977e0d1a55aed3d0a7e8b895ae5680ee12b7648e9005cfc69f012fc9ac6b88152f35b600080fd5b602090600319011261019d576004356001600160a01b038116810361019d5790565b3461019d576101d2366101a2565b60018060a01b036000916101ea8284541633146116c5565b16808252600160205260408220600160ff198254161790557f05e7c881d716bee8cb7ed92293133ba156704252439e5c502c277448f04e20c28280a280f35b3461019d57600036600319011261019d576020600354604051908152f35b3461019d576001600160a01b0361025d366101a2565b166000526001602052602060ff604060002054166040519015158152f35b3461019d57602036600319011261019d576004356000526004602052602060ff600460406000200154166040519015158152f35b634e487b7160e01b600052604160045260246000fd5b90601f801991011681019081106001600160401b038211176102e657604052565b6102af565b6040519061012082018281106001600160401b038211176102e657604052565b9291926001600160401b0382116102e65760405191610334601f8201601f1916602001846102c5565b82948184528183011161019d578281602093846000960137010152565b9080601f8301121561019d5781602061036c9335910161030b565b90565b3461019d5760a036600319011261019d576001600160401b0360243581811161019d576103a0903690600401610351565b60443582811161019d576103b8903690600401610351565b60643583811161019d576103d0903690600401610351565b9060843593841161019d576103ec6103f5943690600401610351565b92600435611232565b005b3461019d57610405366101a2565b60018060a01b0360009161041d8284541633146116c5565b16808252600160205260408220805460ff191690557faf66545c919a3be306ee446d8f42a9558b5b022620df880517bc9593ec0f2d528280a280f35b90604060031983011261019d5760043591602435906001600160401b03821161019d5761036c91600401610351565b3461019d5761049636610459565b6104ab60018060a01b036000541633146116c5565b816000526004602052604060002090600482019081549260ff841615610536576105126105319361050360ff7f6a67f6498e0156955d3a658d7124084b43548b0eaa26ee2105ccf42059efe1129760081c161561171b565b805461ff001916610100179055565b61051f8260058301611095565b600642910155604051918291826114fd565b0390a2005b60405162461bcd60e51b815260206004820152601660248201527510d95c9d1a599a58d85d19481b9bdd081a5cdcdd595960521b6044820152606490fd5b90600182811c921680156105a4575b602083101461058e57565b634e487b7160e01b600052602260045260246000fd5b91607f1691610583565b90604051918260008254926105c284610574565b90818452600194858116908160001461063157506001146105ee575b50506105ec925003836102c5565b565b9093915060005260209081600020936000915b8183106106195750506105ec935082010138806105de565b85548884018501529485019487945091830191610601565b9150506105ec94506020925060ff191682840152151560051b82010138806105de565b919082519283825260005b848110610680575050826000602080949584010152601f8019910116010190565b60208183018101518483018201520161065f565b959161036c9997936106c76106d5926106b96106f69995610120808d528c0190610654565b908a820360208c0152610654565b9088820360408a0152610654565b93606087015215156080860152151560a085015283820360c0850152610654565b9260e0820152610100818403910152610654565b3461019d57602036600319011261019d5760043560005260046020526040600020610734816105ae565b610792610743600184016105ae565b91610750600285016105ae565b936003810154916004820154610768600584016105ae565b9161077a6007600686015495016105ae565b9460405198899860ff808660081c169516938a610694565b0390f35b3461019d576001600160a01b036107ac366101a2565b1660005260026020526020604060002054604051908152f35b3461019d57602036600319011261019d576108196108276107e76004356115d1565b93949295909161080b6040519788971515885260a0602089015260a0880190610654565b908682036040880152610654565b908482036060860152610654565b9060808301520390f35b3461019d5761083f36610459565b90600091338352600160205261085b60ff604085205416610eea565b818352600560205260ff6040842054166108ca576108c47f7d9f33e0c9946a95c11864ca04df3e2dfebc5d4d9a43bd0fe5b3662386a81ad9916108b86108ab856000526005602052604060002090565b805460ff19166001179055565b604051918291826114fd565b0390a280f35b60405162461bcd60e51b8152602060048201526013602482015272149bdbdd08185b1c9958591e481a5cdcdd5959606a1b6044820152606490fd5b9181601f8401121561019d578235916001600160401b03831161019d576020838186019501011161019d57565b3461019d5760e036600319011261019d576001600160401b0360243581811161019d5761096460049136908301610351565b60443583811161019d5761097b9036908401610351565b9160643584811161019d576109939036908301610351565b60843585811161019d576109aa9036908401610351565b9060c43595861161019d576109c56103f59636908501610905565b95909460a435943561182f565b3461019d57608036600319011261019d576001600160401b0360043560243582811161019d57610a06903690600401610351565b9160443581811161019d57610a1f903690600401610351565b60643591821161019d57610a46600080516020611ad9833981519152923690600401610351565b93610b046000953387526001602052610a6560ff604089205416610eea565b610a9a610a84610a7f886000526004602052604060002090565b610f41565b608081015115155b9081610b13575b5015610fd2565b610aa26102eb565b908382528460208301526040820152426060820152610ac46080820160019052565b8660a0820152610ad261101e565b60c08201528660e0820152610ae561101e565b610100820152610aff866000526004602052604060002090565b611163565b6108c46040519283928361120d565b60a00151159050610b23565b1590565b38610a93565b6001600160401b0381116102e65760051b60200190565b9080601f8301121561019d57813590610b5882610b29565b92610b6660405194856102c5565b828452602092838086019160051b8301019280841161019d57848301915b848310610b945750505050505090565b82356001600160401b03811161019d578691610bb584848094890101610351565b815201920191610b84565b3461019d57608036600319011261019d576001600160401b0360043581811161019d573660238201121561019d578060040135610bfc81610b29565b91610c0a60405193846102c5565b81835260209160248385019160051b8301019136831161019d57602401905b828210610c8457858560243582811161019d57610c4a903690600401610b40565b60443583811161019d57610c62903690600401610b40565b9060643593841161019d57610c7e6103f5943690600401610b40565b926112ee565b81358152908301908301610c29565b3461019d57600036600319011261019d5760206040517f8b73c3c69bb8fe3d512ecc4cf759cc79239f7b179b0ffacaa9a75d522b39400f8152f35b3461019d57606036600319011261019d576001600160401b0360443581811161019d573660238201121561019d57806004013591821161019d573660248360051b8301011161019d57610792916024610d2d920160243560043561151e565b60405190151581529081906020820190565b3461019d57602036600319011261019d576004356000526005602052602060ff604060002054166040519015158152f35b959193610dab61036c9a9894610d9d6106f69897610db99515158b526101208060208d01528b0190610654565b9089820360408b0152610654565b908782036060890152610654565b926080860152151560a085015283820360c0850152610654565b3461019d57602036600319011261019d5760043560005260046020526040600020610dfc6102eb565b610e05826105ae565b8152610792610e16600184016105ae565b9260208301938452610e2a600282016105ae565b60408401908152600382015460608501908152600483015460ff811615156080870190815293919060081c60ff16151560a08701908152610e6d600584016105ae565b9160c08801928352610eb0610ea1610e93600760068801549760e08d01988952016105ae565b97886101008c015251151590565b98519951955191519251151590565b9251935194604051998a998a610d70565b3461019d57600036600319011261019d576000546040516001600160a01b039091168152602090f35b15610ef157565b60405162461bcd60e51b815260206004820152602260248201527f4f6e6c79206973737565722063616e2063616c6c20746869732066756e63746960448201526137b760f11b6064820152608490fd5b90610fca6007610f4f6102eb565b93610f59816105ae565b8552610f67600182016105ae565b6020860152610f78600282016105ae565b604086015260038101546060860152600481015460ff81811615156080880152610fa99160081c16151560a0870152565b610fb5600582016105ae565b60c0860152600681015460e0860152016105ae565b610100830152565b15610fd957565b60405162461bcd60e51b815260206004820152601a60248201527f436572746966696361746520616c7265616479206973737565640000000000006044820152606490fd5b60405190602082018281106001600160401b038211176102e65760405260008252565b90601f811161104f57505050565b600091825260208220906020601f850160051c8301941061108b575b601f0160051c01915b82811061108057505050565b818155600101611074565b909250829061106b565b91909182516001600160401b0381116102e6576110bc816110b68454610574565b84611041565b602080601f83116001146110f85750819293946000926110ed575b50508160011b916000199060031b1c1916179055565b0151905038806110d7565b90601f1983169561110e85600052602060002090565b926000905b88821061114b57505083600195969710611132575b505050811b019055565b015160001960f88460031b161c19169055388080611128565b80600185968294968601518155019501930190611113565b60076101006105ec93611177815185611095565b611188602082015160018601611095565b611199604082015160028601611095565b606081015160038501556111e9600485016111cc6111ba6080850151151590565b829060ff801983541691151516179055565b60a08301511515815461ff00191690151560081b61ff0016179055565b6111fa60c082015160058601611095565b60e0810151600685015501519101611095565b909161122461036c93604084526040840190610654565b916020818403910152610654565b93600080516020611ad9833981519152936112da9133600052600160205261126160ff60406000205416610eea565b61127b610a84610a7f896000526004602052604060002090565b6112836102eb565b9184835285602084015260408301524260608301526112a56080830160019052565b600060a08301526112b461101e565b60c0830152600060e0830152610100820152610aff866000526004602052604060002090565b6112e96040519283928361120d565b0390a2565b92909192600090338252600193602085815260409261131260ff8587205416610eea565b61132e8151845181149081611455575b8161144a575b50611460565b84875b611341575b505050505050505050565b8151811015611445578061135861143f92846114e4565b516114098b6113ce888c6113ab876113a48161139d81611385610a7f8d6000526004602052604060002090565b97611398608099610a8c8b820151151590565b6114e4565b51976114e4565b51926114e4565b51906113b56102eb565b9485528a8501528b840152426060840152820160019052565b8960a08201526113dc61101e565b60c08201528960e08201526113ef61101e565b610100820152610aff836000526004602052604060002090565b600080516020611ad98339815191528b611427846113a4818b6114e4565b51906114378a519283928361120d565b0390a26114ba565b87611331565b611336565b905087511438611328565b8a5181149150611322565b1561146757565b60405162461bcd60e51b8152602060048201526015602482015274082e4e4c2f240d8cadccee8d040dad2e6dac2e8c6d605b1b6044820152606490fd5b634e487b7160e01b600052601160045260246000fd5b60001981146114c95760010190565b6114a4565b634e487b7160e01b600052603260045260246000fd5b80518210156114f85760209160051b010190565b6114ce565b90602061036c928181520190610654565b91908110156114f85760051b0190565b9283926000915b80831061155a5750505014908161153a575090565b61036c9150611553906000526005602052604060002090565b5460ff1690565b919350916115a79061156d85848661150e565b358082116115b15760408051602081019384529081019190915261159e81606081015b03601f1981018352826102c5565b519020936114ba565b9091849392611525565b6040805160208101928352908101929092529061159e8160608101611590565b600052600460205260406000206115e66102eb565b906115f0816105ae565b82526115fe600182016105ae565b9260208301938452611612600283016105ae565b926040810193845261168a610b1f6003850154946060840195865261167e600760048301549261165d60ff6080890195611650828216889015159052565b60081c16151560a0890152565b611669600582016105ae565b60c0880152600681015460e0880152016105ae565b61010085015251151590565b61169d5751935192519151600194939291565b50925050506000906116ad61101e565b906116b661101e565b906116bf61101e565b90600090565b156116cc57565b60405162461bcd60e51b815260206004820152602160248201527f4f6e6c792061646d696e2063616e2063616c6c20746869732066756e6374696f6044820152603760f91b6064820152608490fd5b1561172257565b60405162461bcd60e51b815260206004820152601b60248201527f436572746966696361746520616c7265616479207265766f6b656400000000006044820152606490fd5b6040513d6000823e3d90fd5b1561177a57565b60405162461bcd60e51b8152602060048201526011602482015270496e76616c6964207369676e617475726560781b6044820152606490fd5b156117ba57565b60405162461bcd60e51b815260206004820152601160248201527029b4b3b732b9103737ba1034b9b9bab2b960791b6044820152606490fd5b156117fa57565b60405162461bcd60e51b815260206004820152600d60248201526c496e76616c6964206e6f6e636560981b6044820152606490fd5b96959194929593909384516020938491828801208851838a0120908a51848c0120918c898851878a0120604051958694898601966118b695889260c094919796959260e08501987f18f977e0d1a55aed3d0a7e8b895ae5680ee12b7648e9005cfc69f012fc9ac6b88652602086015260408501526060840152608083015260a08201520152565b0391601f199283810182526118cb90826102c5565b51902060035460405161190160f01b8682019081526002810192909252602282019290925291816042840103908101825261190690826102c5565b5190209236906119159261030b565b61191e90611a66565b6040805195865260ff919091166020860152840191909152606083015260008080529182906080905a600190fa15611a61578051600080516020611ad9833981519152976112da9590916119e7916119cd906119846001600160a01b0384161515611773565b6001600160a01b03831660009081526001602052604090206119ae906119a990611553565b6117b3565b6001600160a01b038316600090815260026020526040902054146117f3565b6001600160a01b0316600090815260026020526040902090565b6119f181546114ba565b9055611a0d610a84610a7f8b6000526004602052604060002090565b86611a166102eb565b878152948501526040840152426060840152600160808401528060a0840152611a3d61101e565b60c084015260e0830152610100820152610aff866000526004602052604060002090565b611767565b6041815103611a9c576020810151916060604083015192015160001a90601b8210611a8d57565b90601b0160ff81116114c95790565b60405162461bcd60e51b81526020600482015260146024820152730c4c2c840e6d2cedcc2e8eae4ca40d8cadccee8d60631b6044820152606490fdfe23cb08027d6cf3f884123dc2fcb28589d27c93a6efdd5273282b92e1bab97671a2646970667358221220b7a8a62d91dae9a6581c53a8e15d1a7ed60d95effeba68fec41f2b4d17103e2a64736f6c63430008130033","opcodes":"PUSH1 0x80 PUSH1 0x40 DUP2 DUP2 MSTORE CALLVALUE PUSH2 0x108 JUMPI PUSH1 0x13 PUSH1 0x20 PUSH1 0x0 SWAP4 CALLER PUSH1 0x1 DUP1 PUSH1 0xA0 SHL SUB NOT DUP7 SLOAD AND OR DUP6 SSTORE CALLER DUP6 MSTORE PUSH1 0x1 DUP3 MSTORE DUP4 DUP6 KECCAK256 PUSH1 0x1 PUSH1 0xFF NOT DUP3 SLOAD AND OR SWAP1 SSTORE PUSH2 0x3F DUP2 PUSH2 0x10D JUMP JUMPDEST DUP3 DUP2 MSTORE ADD PUSH32 0x4365727469666963617465526567697374727900000000000000000000000000 DUP2 MSTORE KECCAK256 SWAP1 PUSH1 0x1 PUSH1 0x20 DUP3 MLOAD PUSH2 0x77 DUP2 PUSH2 0x10D JUMP JUMPDEST DUP3 DUP2 MSTORE ADD PUSH1 0x31 PUSH1 0xF8 SHL DUP2 MSTORE KECCAK256 SWAP1 DUP1 MLOAD SWAP2 PUSH1 0x20 DUP4 ADD SWAP4 PUSH32 0x8B73C3C69BB8FE3D512ECC4CF759CC79239F7B179B0FFACAA9A75D522B39400F DUP6 MSTORE DUP3 DUP5 ADD MSTORE PUSH1 0x60 DUP4 ADD MSTORE CHAINID PUSH1 0x80 DUP4 ADD MSTORE ADDRESS PUSH1 0xA0 DUP4 ADD MSTORE PUSH1 0xA0 DUP3 MSTORE PUSH1 0xC0 DUP3 ADD SWAP4 DUP3 DUP6 LT PUSH1 0x1 DUP1 PUSH1 0x40 SHL SUB DUP7 GT OR PUSH2 0xF4 JUMPI POP DUP4 SWAP1 MSTORE MLOAD SWAP1 KECCAK256 PUSH1 0x3 SSTORE PUSH2 0x1B2E SWAP1 DUP2 PUSH2 0x13F DUP3 CODECOPY RETURN JUMPDEST PUSH4 0x4E487B71 PUSH1 0xE0 SHL DUP2 MSTORE PUSH1 0x41 PUSH1 0x4 MSTORE PUSH1 0x24 SWAP1 REVERT JUMPDEST PUSH1 0x0 DUP1 REVERT JUMPDEST PUSH1 0x40 DUP2 ADD SWAP1 DUP2 LT PUSH1 0x1 PUSH1 0x1 PUSH1 0x40 SHL SUB DUP3 GT OR PUSH2 0x128 JUMPI PUSH1 0x40 MSTORE JUMP JUMPDEST PUSH4 0x4E487B71 PUSH1 0xE0 SHL PUSH1 0x0 MSTORE PUSH1 0x41 PUSH1 0x4 MSTORE PUSH1 0x24 PUSH1 0x0 REVERT INVALID PUSH1 0x80 PUSH1 0x40 MSTORE PUSH1 0x4 CALLDATASIZE LT ISZERO PUSH2 0x12 JUMPI PUSH1 0x0 DUP1 REVERT JUMPDEST PUSH1 0x0 CALLDATALOAD PUSH1 0xE0 SHR DUP1 PUSH4 0x3B3500A EQ PUSH2 0x162 JUMPI DUP1 PUSH4 0x20694DB0 EQ PUSH2 0x15D JUMPI DUP1 PUSH4 0x3644E515 EQ PUSH2 0x158 JUMPI DUP1 PUSH4 0x38A7543E EQ PUSH2 0x130 JUMPI DUP1 PUSH4 0x3AA24742 EQ PUSH2 0x153 JUMPI DUP1 PUSH4 0x46F63913 EQ PUSH2 0x14E JUMPI DUP1 PUSH4 0x47BC7093 EQ PUSH2 0x149 JUMPI DUP1 PUSH4 0x5BF4ADFB EQ PUSH2 0x144 JUMPI DUP1 PUSH4 0x742F0688 EQ PUSH2 0x13F JUMPI DUP1 PUSH4 0x7ECEBE00 EQ PUSH2 0x13A JUMPI DUP1 PUSH4 0x850C1768 EQ PUSH2 0x135 JUMPI DUP1 PUSH4 0x877B9A67 EQ PUSH2 0x130 JUMPI DUP1 PUSH4 0x9FEF5B07 EQ PUSH2 0x12B JUMPI DUP1 PUSH4 0xA02006E5 EQ PUSH2 0x126 JUMPI DUP1 PUSH4 0xA246B968 EQ PUSH2 0x121 JUMPI DUP1 PUSH4 0xAB740D39 EQ PUSH2 0x11C JUMPI DUP1 PUSH4 0xC7977BE7 EQ PUSH2 0x117 JUMPI DUP1 PUSH4 0xD8E4A88A EQ PUSH2 0x112 JUMPI DUP1 PUSH4 0xE7A315A4 EQ PUSH2 0x10D JUMPI DUP1 PUSH4 0xF333FE08 EQ PUSH2 0x108 JUMPI PUSH4 0xF851A440 EQ PUSH2 0x103 JUMPI PUSH1 0x0 DUP1 REVERT JUMPDEST PUSH2 0xEC1 JUMP JUMPDEST PUSH2 0xDD3 JUMP JUMPDEST PUSH2 0xD3F JUMP JUMPDEST PUSH2 0xCCE JUMP JUMPDEST PUSH2 0xC93 JUMP JUMPDEST PUSH2 0xBC0 JUMP JUMPDEST PUSH2 0x9D2 JUMP JUMPDEST PUSH2 0x932 JUMP JUMPDEST PUSH2 0x831 JUMP JUMPDEST PUSH2 0x247 JUMP JUMPDEST PUSH2 0x7C5 JUMP JUMPDEST PUSH2 0x796 JUMP JUMPDEST PUSH2 0x70A JUMP JUMPDEST PUSH2 0x488 JUMP JUMPDEST PUSH2 0x3F7 JUMP JUMPDEST PUSH2 0x36F JUMP JUMPDEST PUSH2 0x27B JUMP JUMPDEST PUSH2 0x229 JUMP JUMPDEST PUSH2 0x1C4 JUMP JUMPDEST CALLVALUE PUSH2 0x19D JUMPI PUSH1 0x0 CALLDATASIZE PUSH1 0x3 NOT ADD SLT PUSH2 0x19D JUMPI PUSH1 0x20 PUSH1 0x40 MLOAD PUSH32 0x18F977E0D1A55AED3D0A7E8B895AE5680EE12B7648E9005CFC69F012FC9AC6B8 DUP2 MSTORE RETURN JUMPDEST PUSH1 0x0 DUP1 REVERT JUMPDEST PUSH1 0x20 SWAP1 PUSH1 0x3 NOT ADD SLT PUSH2 0x19D JUMPI PUSH1 0x4 CALLDATALOAD PUSH1 0x1 PUSH1 0x1 PUSH1 0xA0 SHL SUB DUP2 AND DUP2 SUB PUSH2 0x19D JUMPI SWAP1 JUMP JUMPDEST CALLVALUE PUSH2 0x19D JUMPI PUSH2 0x1D2 CALLDATASIZE PUSH2 0x1A2 JUMP JUMPDEST PUSH1 0x1 DUP1 PUSH1 0xA0 SHL SUB PUSH1 0x0 SWAP2 PUSH2 0x1EA DUP3 DUP5 SLOAD AND CALLER EQ PUSH2 0x16C5 JUMP JUMPDEST AND DUP1 DUP3 MSTORE PUSH1 0x1 PUSH1 0x20 MSTORE PUSH1 0x40 DUP3 KECCAK256 PUSH1 0x1 PUSH1 0xFF NOT DUP3 SLOAD AND OR SWAP1 SSTORE PUSH32 0x5E7C881D716BEE8CB7ED92293133BA156704252439E5C502C277448F04E20C2 DUP3 DUP1 LOG2 DUP1 RETURN JUMPDEST CALLVALUE PUSH2 0x19D JUMPI PUSH1 0x0 CALLDATASIZE PUSH1 0x3 NOT ADD SLT PUSH2 0x19D JUMPI PUSH1 0x20 PUSH1 0x3 SLOAD PUSH1 0x40 MLOAD SWAP1 DUP2 MSTORE RETURN JUMPDEST CALLVALUE PUSH2 0x19D JUMPI PUSH1 0x1 PUSH1 0x1 PUSH1 0xA0 SHL SUB PUSH2 0x25D CALLDATASIZE PUSH2 0x1A2 JUMP JUMPDEST AND PUSH1 0x0 MSTORE PUSH1 0x1 PUSH1 0x20 MSTORE PUSH1 0x20 PUSH1 0xFF PUSH1 0x40 PUSH1 0x0 KECCAK256 SLOAD AND PUSH1 0x40 MLOAD SWAP1 ISZERO ISZERO DUP2 MSTORE RETURN JUMPDEST CALLVALUE PUSH2 0x19D JUMPI PUSH1 0x20 CALLDATASIZE PUSH1 0x3 NOT ADD SLT PUSH2 0x19D JUMPI PUSH1 0x4 CALLDATALOAD PUSH1 0x0 MSTORE PUSH1 0x4 PUSH1 0x20 MSTORE PUSH1 0x20 PUSH1 0xFF PUSH1 0x4 PUSH1 0x40 PUSH1 0x0 KECCAK256 ADD SLOAD AND PUSH1 0x40 MLOAD SWAP1 ISZERO ISZERO DUP2 MSTORE RETURN JUMPDEST PUSH4 0x4E487B71 PUSH1 0xE0 SHL PUSH1 0x0 MSTORE PUSH1 0x41 PUSH1 0x4 MSTORE PUSH1 0x24 PUSH1 0x0 REVERT JUMPDEST SWAP1 PUSH1 0x1F DUP1 NOT SWAP2 ADD AND DUP2 ADD SWAP1 DUP2 LT PUSH1 0x1 PUSH1 0x1 PUSH1 0x40 SHL SUB DUP3 GT OR PUSH2 0x2E6 JUMPI PUSH1 0x40 MSTORE JUMP JUMPDEST PUSH2 0x2AF JUMP JUMPDEST PUSH1 0x40 MLOAD SWAP1 PUSH2 0x120 DUP3 ADD DUP3 DUP2 LT PUSH1 0x1 PUSH1 0x1 PUSH1 0x40 SHL SUB DUP3 GT OR PUSH2 0x2E6 JUMPI PUSH1 0x40 MSTORE JUMP JUMPDEST SWAP3 SWAP2 SWAP3 PUSH1 0x1 PUSH1 0x1 PUSH1 0x40 SHL SUB DUP3 GT PUSH2 0x2E6 JUMPI PUSH1 0x40 MLOAD SWAP2 PUSH2 0x334 PUSH1 0x1F DUP3 ADD PUSH1 0x1F NOT AND PUSH1 0x20 ADD DUP5 PUSH2 0x2C5 JUMP JUMPDEST DUP3 SWAP5 DUP2 DUP5 MSTORE DUP2 DUP4 ADD GT PUSH2 0x19D JUMPI DUP3 DUP2 PUSH1 0x20 SWAP4 DUP5 PUSH1 0x0 SWAP7 ADD CALLDATACOPY ADD ADD MSTORE JUMP JUMPDEST SWAP1 DUP1 PUSH1 0x1F DUP4 ADD SLT ISZERO PUSH2 0x19D JUMPI DUP2 PUSH1 0x20 PUSH2 0x36C SWAP4 CALLDATALOAD SWAP2 ADD PUSH2 0x30B JUMP JUMPDEST SWAP1 JUMP JUMPDEST CALLVALUE PUSH2 0x19D JUMPI PUSH1 0xA0 CALLDATASIZE PUSH1 0x3 NOT ADD SLT PUSH2 0x19D JUMPI PUSH1 0x1 PUSH1 0x1 PUSH1 0x40 SHL SUB PUSH1 0x24 CALLDATALOAD DUP2 DUP2 GT PUSH2 0x19D JUMPI PUSH2 0x3A0 SWAP1 CALLDATASIZE SWAP1 PUSH1 0x4 ADD PUSH2 0x351 JUMP JUMPDEST PUSH1 0x44 CALLDATALOAD DUP3 DUP2 GT PUSH2 0x19D JUMPI PUSH2 0x3B8 SWAP1 CALLDATASIZE SWAP1 PUSH1 0x4 ADD PUSH2 0x351 JUMP JUMPDEST PUSH1 0x64 CALLDATALOAD DUP4 DUP2 GT PUSH2 0x19D JUMPI PUSH2 0x3D0 SWAP1 CALLDATASIZE SWAP1 PUSH1 0x4 ADD PUSH2 0x351 JUMP JUMPDEST SWAP1 PUSH1 0x84 CALLDATALOAD SWAP4 DUP5 GT PUSH2 0x19D JUMPI PUSH2 0x3EC PUSH2 0x3F5 SWAP5 CALLDATASIZE SWAP1 PUSH1 0x4 ADD PUSH2 0x351 JUMP JUMPDEST SWAP3 PUSH1 0x4 CALLDATALOAD PUSH2 0x1232 JUMP JUMPDEST STOP JUMPDEST CALLVALUE PUSH2 0x19D JUMPI PUSH2 0x405 CALLDATASIZE PUSH2 0x1A2 JUMP JUMPDEST PUSH1 0x1 DUP1 PUSH1 0xA0 SHL SUB PUSH1 0x0 SWAP2 PUSH2 0x41D DUP3 DUP5 SLOAD AND CALLER EQ PUSH2 0x16C5 JUMP JUMPDEST AND DUP1 DUP3 MSTORE PUSH1 0x1 PUSH1 0x20 MSTORE PUSH1 0x40 DUP3 KECCAK256 DUP1 SLOAD PUSH1 0xFF NOT AND SWAP1 SSTORE PUSH32 0xAF66545C919A3BE306EE446D8F42A9558B5B022620DF880517BC9593EC0F2D52 DUP3 DUP1 LOG2 DUP1 RETURN JUMPDEST SWAP1 PUSH1 0x40 PUSH1 0x3 NOT DUP4 ADD SLT PUSH2 0x19D JUMPI PUSH1 0x4 CALLDATALOAD SWAP2 PUSH1 0x24 CALLDATALOAD SWAP1 PUSH1 0x1 PUSH1 0x1 PUSH1 0x40 SHL SUB DUP3 GT PUSH2 0x19D JUMPI PUSH2 0x36C SWAP2 PUSH1 0x4 ADD PUSH2 0x351 JUMP JUMPDEST CALLVALUE PUSH2 0x19D JUMPI PUSH2 0x496 CALLDATASIZE PUSH2 0x459 JUMP JUMPDEST PUSH2 0x4AB PUSH1 0x1 DUP1 PUSH1 0xA0 SHL SUB PUSH1 0x0 SLOAD AND CALLER EQ PUSH2 0x16C5 JUMP JUMPDEST DUP2 PUSH1 0x0 MSTORE PUSH1 0x4 PUSH1 0x20 MSTORE PUSH1 0x40 PUSH1 0x0 KECCAK256 SWAP1 PUSH1 0x4 DUP3 ADD SWAP1 DUP2 SLOAD SWAP3 PUSH1 0xFF DUP5 AND ISZERO PUSH2 0x536 JUMPI PUSH2 0x512 PUSH2 0x531 SWAP4 PUSH2 0x503 PUSH1 0xFF PUSH32 0x6A67F6498E0156955D3A658D7124084B43548B0EAA26EE2105CCF42059EFE112 SWAP8 PUSH1 0x8 SHR AND ISZERO PUSH2 0x171B JUMP JUMPDEST DUP1 SLOAD PUSH2 0xFF00 NOT AND PUSH2 0x100 OR SWAP1 SSTORE JUMP JUMPDEST PUSH2 0x51F DUP3 PUSH1 0x5 DUP4 ADD PUSH2 0x1095 JUMP JUMPDEST PUSH1 0x6 TIMESTAMP SWAP2 ADD SSTORE PUSH1 0x40 MLOAD SWAP2 DUP3 SWAP2 DUP3 PUSH2 0x14FD JUMP JUMPDEST SUB SWAP1 LOG2 STOP JUMPDEST PUSH1 0x40 MLOAD PUSH3 0x461BCD PUSH1 0xE5 SHL DUP2 MSTORE PUSH1 0x20 PUSH1 0x4 DUP3 ADD MSTORE PUSH1 0x16 PUSH1 0x24 DUP3 ADD MSTORE PUSH22 0x10D95C9D1A599A58D85D19481B9BDD081A5CDCDD5959 PUSH1 0x52 SHL PUSH1 0x44 DUP3 ADD MSTORE PUSH1 0x64 SWAP1 REVERT JUMPDEST SWAP1 PUSH1 0x1 DUP3 DUP2 SHR SWAP3 AND DUP1 ISZERO PUSH2 0x5A4 JUMPI JUMPDEST PUSH1 0x20 DUP4 LT EQ PUSH2 0x58E JUMPI JUMP JUMPDEST PUSH4 0x4E487B71 PUSH1 0xE0 SHL PUSH1 0x0 MSTORE PUSH1 0x22 PUSH1 0x4 MSTORE PUSH1 0x24 PUSH1 0x0 REVERT JUMPDEST SWAP2 PUSH1 0x7F AND SWAP2 PUSH2 0x583 JUMP JUMPDEST SWAP1 PUSH1 0x40 MLOAD SWAP2 DUP3 PUSH1 0x0 DUP3 SLOAD SWAP3 PUSH2 0x5C2 DUP5 PUSH2 0x574 JUMP JUMPDEST SWAP1 DUP2 DUP5 MSTORE PUSH1 0x1 SWAP5 DUP6 DUP2 AND SWAP1 DUP2 PUSH1 0x0 EQ PUSH2 0x631 JUMPI POP PUSH1 0x1 EQ PUSH2 0x5EE JUMPI JUMPDEST POP POP PUSH2 0x5EC SWAP3 POP SUB DUP4 PUSH2 0x2C5 JUMP JUMPDEST JUMP JUMPDEST SWAP1 SWAP4 SWAP2 POP PUSH1 0x0 MSTORE PUSH1 0x20 SWAP1 DUP2 PUSH1 0x0 KECCAK256 SWAP4 PUSH1 0x0 SWAP2 JUMPDEST DUP2 DUP4 LT PUSH2 0x619 JUMPI POP POP PUSH2 0x5EC SWAP4 POP DUP3 ADD ADD CODESIZE DUP1 PUSH2 0x5DE JUMP JUMPDEST DUP6 SLOAD DUP9 DUP5 ADD DUP6 ADD MSTORE SWAP5 DUP6 ADD SWAP5 DUP8 SWAP5 POP SWAP2 DUP4 ADD SWAP2 PUSH2 0x601 JUMP JUMPDEST SWAP2 POP POP PUSH2 0x5EC SWAP5 POP PUSH1 0x20 SWAP3 POP PUSH1 0xFF NOT AND DUP3 DUP5 ADD MSTORE ISZERO ISZERO PUSH1 0x5 SHL DUP3 ADD ADD CODESIZE DUP1 PUSH2 0x5DE JUMP JUMPDEST SWAP2 SWAP1 DUP3 MLOAD SWAP3 DUP4 DUP3 MSTORE PUSH1 0x0 JUMPDEST DUP5 DUP2 LT PUSH2 0x680 JUMPI POP POP DUP3 PUSH1 0x0 PUSH1 0x20 DUP1 SWAP5 SWAP6 DUP5 ADD ADD MSTORE PUSH1 0x1F DUP1 NOT SWAP2 ADD AND ADD ADD SWAP1 JUMP JUMPDEST PUSH1 0x20 DUP2 DUP4 ADD DUP2 ADD MLOAD DUP5 DUP4 ADD DUP3 ADD MSTORE ADD PUSH2 0x65F JUMP JUMPDEST SWAP6 SWAP2 PUSH2 0x36C SWAP10 SWAP8 SWAP4 PUSH2 0x6C7 PUSH2 0x6D5 SWAP3 PUSH2 0x6B9 PUSH2 0x6F6 SWAP10 SWAP6 PUSH2 0x120 DUP1 DUP14 MSTORE DUP13 ADD SWAP1 PUSH2 0x654 JUMP JUMPDEST SWAP1 DUP11 DUP3 SUB PUSH1 0x20 DUP13 ADD MSTORE PUSH2 0x654 JUMP JUMPDEST SWAP1 DUP9 DUP3 SUB PUSH1 0x40 DUP11 ADD MSTORE PUSH2 0x654 JUMP JUMPDEST SWAP4 PUSH1 0x60 DUP8 ADD MSTORE ISZERO ISZERO PUSH1 0x80 DUP7 ADD MSTORE ISZERO ISZERO PUSH1 0xA0 DUP6 ADD MSTORE DUP4 DUP3 SUB PUSH1 0xC0 DUP6 ADD MSTORE PUSH2 0x654 JUMP JUMPDEST SWAP3 PUSH1 0xE0 DUP3 ADD MSTORE PUSH2 0x100 DUP2 DUP5 SUB SWAP2 ADD MSTORE PUSH2 0x654 JUMP JUMPDEST CALLVALUE PUSH2 0x19D JUMPI PUSH1 0x20 CALLDATASIZE PUSH1 0x3 NOT ADD SLT PUSH2 0x19D JUMPI PUSH1 0x4 CALLDATALOAD PUSH1 0x0 MSTORE PUSH1 0x4 PUSH1 0x20 MSTORE PUSH1 0x40 PUSH1 0x0 KECCAK256 PUSH2 0x734 DUP2 PUSH2 0x5AE JUMP JUMPDEST PUSH2 0x792 PUSH2 0x743 PUSH1 0x1 DUP5 ADD PUSH2 0x5AE JUMP JUMPDEST SWAP2 PUSH2 0x750 PUSH1 0x2 DUP6 ADD PUSH2 0x5AE JUMP JUMPDEST SWAP4 PUSH1 0x3 DUP2 ADD SLOAD SWAP2 PUSH1 0x4 DUP3 ADD SLOAD PUSH2 0x768 PUSH1 0x5 DUP5 ADD PUSH2 0x5AE JUMP JUMPDEST SWAP2 PUSH2 0x77A PUSH1 0x7 PUSH1 0x6 DUP7 ADD SLOAD SWAP6 ADD PUSH2 0x5AE JUMP JUMPDEST SWAP5 PUSH1 0x40 MLOAD SWAP9 DUP10 SWAP9 PUSH1 0xFF DUP1 DUP7 PUSH1 0x8 SHR AND SWAP6 AND SWAP4 DUP11 PUSH2 0x694 JUMP JUMPDEST SUB SWAP1 RETURN JUMPDEST CALLVALUE PUSH2 0x19D JUMPI PUSH1 0x1 PUSH1 0x1 PUSH1 0xA0 SHL SUB PUSH2 0x7AC CALLDATASIZE PUSH2 0x1A2 JUMP JUMPDEST AND PUSH1 0x0 MSTORE PUSH1 0x2 PUSH1 0x20 MSTORE PUSH1 0x20 PUSH1 0x40 PUSH1 0x0 KECCAK256 SLOAD PUSH1 0x40 MLOAD SWAP1 DUP2 MSTORE RETURN JUMPDEST CALLVALUE PUSH2 0x19D JUMPI PUSH1 0x20 CALLDATASIZE PUSH1 0x3 NOT ADD SLT PUSH2 0x19D JUMPI PUSH2 0x819 PUSH2 0x827 PUSH2 0x7E7 PUSH1 0x4 CALLDATALOAD PUSH2 0x15D1 JUMP JUMPDEST SWAP4 SWAP5 SWAP3 SWAP6 SWAP1 SWAP2 PUSH2 0x80B PUSH1 0x40 MLOAD SWAP8 DUP9 SWAP8 ISZERO ISZERO DUP9 MSTORE PUSH1 0xA0 PUSH1 0x20 DUP10 ADD MSTORE PUSH1 0xA0 DUP9 ADD SWAP1 PUSH2 0x654 JUMP JUMPDEST SWAP1 DUP7 DUP3 SUB PUSH1 0x40 DUP9 ADD MSTORE PUSH2 0x654 JUMP JUMPDEST SWAP1 DUP5 DUP3 SUB PUSH1 0x60 DUP7 ADD MSTORE PUSH2 0x654 JUMP JUMPDEST SWAP1 PUSH1 0x80 DUP4 ADD MSTORE SUB SWAP1 RETURN JUMPDEST CALLVALUE PUSH2 0x19D JUMPI PUSH2 0x83F CALLDATASIZE PUSH2 0x459 JUMP JUMPDEST SWAP1 PUSH1 0x0 SWAP2 CALLER DUP4 MSTORE PUSH1 0x1 PUSH1 0x20 MSTORE PUSH2 0x85B PUSH1 0xFF PUSH1 0x40 DUP6 KECCAK256 SLOAD AND PUSH2 0xEEA JUMP JUMPDEST DUP2 DUP4 MSTORE PUSH1 0x5 PUSH1 0x20 MSTORE PUSH1 0xFF PUSH1 0x40 DUP5 KECCAK256 SLOAD AND PUSH2 0x8CA JUMPI PUSH2 0x8C4 PUSH32 0x7D9F33E0C9946A95C11864CA04DF3E2DFEBC5D4D9A43BD0FE5B3662386A81AD9 SWAP2 PUSH2 0x8B8 PUSH2 0x8AB DUP6 PUSH1 0x0 MSTORE PUSH1 0x5 PUSH1 0x20 MSTORE PUSH1 0x40 PUSH1 0x0 KECCAK256 SWAP1 JUMP JUMPDEST DUP1 SLOAD PUSH1 0xFF NOT AND PUSH1 0x1 OR SWAP1 SSTORE JUMP JUMPDEST PUSH1 0x40 MLOAD SWAP2 DUP3 SWAP2 DUP3 PUSH2 0x14FD JUMP JUMPDEST SUB SWAP1 LOG2 DUP1 RETURN JUMPDEST PUSH1 0x40 MLOAD PUSH3 0x461BCD PUSH1 0xE5 SHL DUP2 MSTORE PUSH1 0x20 PUSH1 0x4 DUP3 ADD MSTORE PUSH1 0x13 PUSH1 0x24 DUP3 ADD MSTORE PUSH19 0x149BDBDD08185B1C9958591E481A5CDCDD5959 PUSH1 0x6A SHL PUSH1 0x44 DUP3 ADD MSTORE PUSH1 0x64 SWAP1 REVERT JUMPDEST SWAP2 DUP2 PUSH1 0x1F DUP5 ADD SLT ISZERO PUSH2 0x19D JUMPI DUP3 CALLDATALOAD SWAP2 PUSH1 0x1 PUSH1 0x1 PUSH1 0x40 SHL SUB DUP4 GT PUSH2 0x19D JUMPI PUSH1 0x20 DUP4 DUP2 DUP7 ADD SWAP6 ADD ADD GT PUSH2 0x19D JUMPI JUMP JUMPDEST CALLVALUE PUSH2 0x19D JUMPI PUSH1 0xE0 CALLDATASIZE PUSH1 0x3 NOT ADD SLT PUSH2 0x19D JUMPI PUSH1 0x1 PUSH1 0x1 PUSH1 0x40 SHL SUB PUSH1 0x24 CALLDATALOAD DUP2 DUP2 GT PUSH2 0x19D JUMPI PUSH2 0x964 PUSH1 0x4 SWAP2 CALLDATASIZE SWAP1 DUP4 ADD PUSH2 0x351 JUMP JUMPDEST PUSH1 0x44 CALLDATALOAD DUP4 DUP2 GT PUSH2 0x19D JUMPI PUSH2 0x97B SWAP1 CALLDATASIZE SWAP1 DUP5 ADD PUSH2 0x351 JUMP JUMPDEST SWAP2 PUSH1 0x64 CALLDATALOAD DUP5 DUP2 GT PUSH2 0x19D JUMPI PUSH2 0x993 SWAP1 CALLDATASIZE SWAP1 DUP4 ADD PUSH2 0x351 JUMP JUMPDEST PUSH1 0x84 CALLDATALOAD DUP6 DUP2 GT PUSH2 0x19D JUMPI PUSH2 0x9AA SWAP1 CALLDATASIZE SWAP1 DUP5 ADD PUSH2 0x351 JUMP JUMPDEST SWAP1 PUSH1 0xC4 CALLDATALOAD SWAP6 DUP7 GT PUSH2 0x19D JUMPI PUSH2 0x9C5 PUSH2 0x3F5 SWAP7 CALLDATASIZE SWAP1 DUP6 ADD PUSH2 0x905 JUMP JUMPDEST SWAP6 SWAP1 SWAP5 PUSH1 0xA4 CALLDATALOAD SWAP5 CALLDATALOAD PUSH2 0x182F JUMP JUMPDEST CALLVALUE PUSH2 0x19D JUMPI PUSH1 0x80 CALLDATASIZE PUSH1 0x3 NOT ADD SLT PUSH2 0x19D JUMPI PUSH1 0x1 PUSH1 0x1 PUSH1 0x40 SHL SUB PUSH1 0x4 CALLDATALOAD PUSH1 0x24 CALLDATALOAD DUP3 DUP2 GT PUSH2 0x19D JUMPI PUSH2 0xA06 SWAP1 CALLDATASIZE SWAP1 PUSH1 0x4 ADD PUSH2 0x351 JUMP JUMPDEST SWAP2 PUSH1 0x44 CALLDATALOAD DUP2 DUP2 GT PUSH2 0x19D JUMPI PUSH2 0xA1F SWAP1 CALLDATASIZE SWAP1 PUSH1 0x4 ADD PUSH2 0x351 JUMP JUMPDEST PUSH1 0x64 CALLDATALOAD SWAP2 DUP3 GT PUSH2 0x19D JUMPI PUSH2 0xA46 PUSH1 0x0 DUP1 MLOAD PUSH1 0x20 PUSH2 0x1AD9 DUP4 CODECOPY DUP2 MLOAD SWAP2 MSTORE SWAP3 CALLDATASIZE SWAP1 PUSH1 0x4 ADD PUSH2 0x351 JUMP JUMPDEST SWAP4 PUSH2 0xB04 PUSH1 0x0 SWAP6 CALLER DUP8 MSTORE PUSH1 0x1 PUSH1 0x20 MSTORE PUSH2 0xA65 PUSH1 0xFF PUSH1 0x40 DUP10 KECCAK256 SLOAD AND PUSH2 0xEEA JUMP JUMPDEST PUSH2 0xA9A PUSH2 0xA84 PUSH2 0xA7F DUP9 PUSH1 0x0 MSTORE PUSH1 0x4 PUSH1 0x20 MSTORE PUSH1 0x40 PUSH1 0x0 KECCAK256 SWAP1 JUMP JUMPDEST PUSH2 0xF41 JUMP JUMPDEST PUSH1 0x80 DUP2 ADD MLOAD ISZERO ISZERO JUMPDEST SWAP1 DUP2 PUSH2 0xB13 JUMPI JUMPDEST POP ISZERO PUSH2 0xFD2 JUMP JUMPDEST PUSH2 0xAA2 PUSH2 0x2EB JUMP JUMPDEST SWAP1 DUP4 DUP3 MSTORE DUP5 PUSH1 0x20 DUP4 ADD MSTORE PUSH1 0x40 DUP3 ADD MSTORE TIMESTAMP PUSH1 0x60 DUP3 ADD MSTORE PUSH2 0xAC4 PUSH1 0x80 DUP3 ADD PUSH1 0x1 SWAP1 MSTORE JUMP JUMPDEST DUP7 PUSH1 0xA0 DUP3 ADD MSTORE PUSH2 0xAD2 PUSH2 0x101E JUMP JUMPDEST PUSH1 0xC0 DUP3 ADD MSTORE DUP7 PUSH1 0xE0 DUP3 ADD MSTORE PUSH2 0xAE5 PUSH2 0x101E JUMP JUMPDEST PUSH2 0x100 DUP3 ADD MSTORE PUSH2 0xAFF DUP7 PUSH1 0x0 MSTORE PUSH1 0x4 PUSH1 0x20 MSTORE PUSH1 0x40 PUSH1 0x0 KECCAK256 SWAP1 JUMP JUMPDEST PUSH2 0x1163 JUMP JUMPDEST PUSH2 0x8C4 PUSH1 0x40 MLOAD SWAP3 DUP4 SWAP3 DUP4 PUSH2 0x120D JUMP JUMPDEST PUSH1 0xA0 ADD MLOAD ISZERO SWAP1 POP PUSH2 0xB23 JUMP JUMPDEST ISZERO SWAP1 JUMP JUMPDEST CODESIZE PUSH2 0xA93 JUMP JUMPDEST PUSH1 0x1 PUSH1 0x1 PUSH1 0x40 SHL SUB DUP2 GT PUSH2 0x2E6 JUMPI PUSH1 0x5 SHL PUSH1 0x20 ADD SWAP1 JUMP JUMPDEST SWAP1 DUP1 PUSH1 0x1F DUP4 ADD SLT ISZERO PUSH2 0x19D JUMPI DUP2 CALLDATALOAD SWAP1 PUSH2 0xB58 DUP3 PUSH2 0xB29 JUMP JUMPDEST SWAP3 PUSH2 0xB66 PUSH1 0x40 MLOAD SWAP5 DUP6 PUSH2 0x2C5 JUMP JUMPDEST DUP3 DUP5 MSTORE PUSH1 0x20 SWAP3 DUP4 DUP1 DUP7 ADD SWAP2 PUSH1 0x5 SHL DUP4 ADD ADD SWAP3 DUP1 DUP5 GT PUSH2 0x19D JUMPI DUP5 DUP4 ADD SWAP2 JUMPDEST DUP5 DUP4 LT PUSH2 0xB94 JUMPI POP POP POP POP POP POP SWAP1 JUMP JUMPDEST DUP3 CALLDATALOAD PUSH1 0x1 PUSH1 0x1 PUSH1 0x40 SHL SUB DUP2 GT PUSH2 0x19D JUMPI DUP7 SWAP2 PUSH2 0xBB5 DUP5 DUP5 DUP1 SWAP5 DUP10 ADD ADD PUSH2 0x351 JUMP JUMPDEST DUP2 MSTORE ADD SWAP3 ADD SWAP2 PUSH2 0xB84 JUMP JUMPDEST CALLVALUE PUSH2 0x19D JUMPI PUSH1 0x80 CALLDATASIZE PUSH1 0x3 NOT ADD SLT PUSH2 0x19D JUMPI PUSH1 0x1 PUSH1 0x1 PUSH1 0x40 SHL SUB PUSH1 0x4 CALLDATALOAD DUP2 DUP2 GT PUSH2 0x19D JUMPI CALLDATASIZE PUSH1 0x23 DUP3 ADD SLT ISZERO PUSH2 0x19D JUMPI DUP1 PUSH1 0x4 ADD CALLDATALOAD PUSH2 0xBFC DUP2 PUSH2 0xB29 JUMP JUMPDEST SWAP2 PUSH2 0xC0A PUSH1 0x40 MLOAD SWAP4 DUP5 PUSH2 0x2C5 JUMP JUMPDEST DUP2 DUP4 MSTORE PUSH1 0x20 SWAP2 PUSH1 0x24 DUP4 DUP6 ADD SWAP2 PUSH1 0x5 SHL DUP4 ADD ADD SWAP2 CALLDATASIZE DUP4 GT PUSH2 0x19D JUMPI PUSH1 0x24 ADD SWAP1 JUMPDEST DUP3 DUP3 LT PUSH2 0xC84 JUMPI DUP6 DUP6 PUSH1 0x24 CALLDATALOAD DUP3 DUP2 GT PUSH2 0x19D JUMPI PUSH2 0xC4A SWAP1 CALLDATASIZE SWAP1 PUSH1 0x4 ADD PUSH2 0xB40 JUMP JUMPDEST PUSH1 0x44 CALLDATALOAD DUP4 DUP2 GT PUSH2 0x19D JUMPI PUSH2 0xC62 SWAP1 CALLDATASIZE SWAP1 PUSH1 0x4 ADD PUSH2 0xB40 JUMP JUMPDEST SWAP1 PUSH1 0x64 CALLDATALOAD SWAP4 DUP5 GT PUSH2 0x19D JUMPI PUSH2 0xC7E PUSH2 0x3F5 SWAP5 CALLDATASIZE SWAP1 PUSH1 0x4 ADD PUSH2 0xB40 JUMP JUMPDEST SWAP3 PUSH2 0x12EE JUMP JUMPDEST DUP2 CALLDATALOAD DUP2 MSTORE SWAP1 DUP4 ADD SWAP1 DUP4 ADD PUSH2 0xC29 JUMP JUMPDEST CALLVALUE PUSH2 0x19D JUMPI PUSH1 0x0 CALLDATASIZE PUSH1 0x3 NOT ADD SLT PUSH2 0x19D JUMPI PUSH1 0x20 PUSH1 0x40 MLOAD PUSH32 0x8B73C3C69BB8FE3D512ECC4CF759CC79239F7B179B0FFACAA9A75D522B39400F DUP2 MSTORE RETURN JUMPDEST CALLVALUE PUSH2 0x19D JUMPI PUSH1 0x60 CALLDATASIZE PUSH1 0x3 NOT ADD SLT PUSH2 0x19D JUMPI PUSH1 0x1 PUSH1 0x1 PUSH1 0x40 SHL SUB PUSH1 0x44 CALLDATALOAD DUP2 DUP2 GT PUSH2 0x19D JUMPI CALLDATASIZE PUSH1 0x23 DUP3 ADD SLT ISZERO PUSH2 0x19D JUMPI DUP1 PUSH1 0x4 ADD CALLDATALOAD SWAP2 DUP3 GT PUSH2 0x19D JUMPI CALLDATASIZE PUSH1 0x24 DUP4 PUSH1 0x5 SHL DUP4 ADD ADD GT PUSH2 0x19D JUMPI PUSH2 0x792 SWAP2 PUSH1 0x24 PUSH2 0xD2D SWAP3 ADD PUSH1 0x24 CALLDATALOAD PUSH1 0x4 CALLDATALOAD PUSH2 0x151E JUMP JUMPDEST PUSH1 0x40 MLOAD SWAP1 ISZERO ISZERO DUP2 MSTORE SWAP1 DUP2 SWAP1 PUSH1 0x20 DUP3 ADD SWAP1 JUMP JUMPDEST CALLVALUE PUSH2 0x19D JUMPI PUSH1 0x20 CALLDATASIZE PUSH1 0x3 NOT ADD SLT PUSH2 0x19D JUMPI PUSH1 0x4 CALLDATALOAD PUSH1 0x0 MSTORE PUSH1 0x5 PUSH1 0x20 MSTORE PUSH1 0x20 PUSH1 0xFF PUSH1 0x40 PUSH1 0x0 KECCAK256 SLOAD AND PUSH1 0x40 MLOAD SWAP1 ISZERO ISZERO DUP2 MSTORE RETURN JUMPDEST SWAP6 SWAP2 SWAP4 PUSH2 0xDAB PUSH2 0x36C SWAP11 SWAP9 SWAP5 PUSH2 0xD9D PUSH2 0x6F6 SWAP9 SWAP8 PUSH2 0xDB9 SWAP6 ISZERO ISZERO DUP12 MSTORE PUSH2 0x120 DUP1 PUSH1 0x20 DUP14 ADD MSTORE DUP12 ADD SWAP1 PUSH2 0x654 JUMP JUMPDEST SWAP1 DUP10 DUP3 SUB PUSH1 0x40 DUP12 ADD MSTORE PUSH2 0x654 JUMP JUMPDEST SWAP1 DUP8 DUP3 SUB PUSH1 0x60 DUP10 ADD MSTORE PUSH2 0x654 JUMP JUMPDEST SWAP3 PUSH1 0x80 DUP7 ADD MSTORE ISZERO ISZERO PUSH1 0xA0 DUP6 ADD MSTORE DUP4 DUP3 SUB PUSH1 0xC0 DUP6 ADD MSTORE PUSH2 0x654 JUMP JUMPDEST CALLVALUE PUSH2 0x19D JUMPI PUSH1 0x20 CALLDATASIZE PUSH1 0x3 NOT ADD SLT PUSH2 0x19D JUMPI PUSH1 0x4 CALLDATALOAD PUSH1 0x0 MSTORE PUSH1 0x4 PUSH1 0x20 MSTORE PUSH1 0x40 PUSH1 0x0 KECCAK256 PUSH2 0xDFC PUSH2 0x2EB JUMP JUMPDEST PUSH2 0xE05 DUP3 PUSH2 0x5AE JUMP JUMPDEST DUP2 MSTORE PUSH2 0x792 PUSH2 0xE16 PUSH1 0x1 DUP5 ADD PUSH2 0x5AE JUMP JUMPDEST SWAP3 PUSH1 0x20 DUP4 ADD SWAP4 DUP5 MSTORE PUSH2 0xE2A PUSH1 0x2 DUP3 ADD PUSH2 0x5AE JUMP JUMPDEST PUSH1 0x40 DUP5 ADD SWAP1 DUP2 MSTORE PUSH1 0x3 DUP3 ADD SLOAD PUSH1 0x60 DUP6 ADD SWAP1 DUP2 MSTORE PUSH1 0x4 DUP4 ADD SLOAD PUSH1 0xFF DUP2 AND ISZERO ISZERO PUSH1 0x80 DUP8 ADD SWAP1 DUP2 MSTORE SWAP4 SWAP2 SWAP1 PUSH1 0x8 SHR PUSH1 0xFF AND ISZERO ISZERO PUSH1 0xA0 DUP8 ADD SWAP1 DUP2 MSTORE PUSH2 0xE6D PUSH1 0x5 DUP5 ADD PUSH2 0x5AE JUMP JUMPDEST SWAP2 PUSH1 0xC0 DUP9 ADD SWAP3 DUP4 MSTORE PUSH2 0xEB0 PUSH2 0xEA1 PUSH2 0xE93 PUSH1 0x7 PUSH1 0x6 DUP9 ADD SLOAD SWAP8 PUSH1 0xE0 DUP14 ADD SWAP9 DUP10 MSTORE ADD PUSH2 0x5AE JUMP JUMPDEST SWAP8 DUP9 PUSH2 0x100 DUP13 ADD MSTORE MLOAD ISZERO ISZERO SWAP1 JUMP JUMPDEST SWAP9 MLOAD SWAP10 MLOAD SWAP6 MLOAD SWAP2 MLOAD SWAP3 MLOAD ISZERO ISZERO SWAP1 JUMP JUMPDEST SWAP3 MLOAD SWAP4 MLOAD SWAP5 PUSH1 0x40 MLOAD SWAP10 DUP11 SWAP10 DUP11 PUSH2 0xD70 JUMP JUMPDEST CALLVALUE PUSH2 0x19D JUMPI PUSH1 0x0 CALLDATASIZE PUSH1 0x3 NOT ADD SLT PUSH2 0x19D JUMPI PUSH1 0x0 SLOAD PUSH1 0x40 MLOAD PUSH1 0x1 PUSH1 0x1 PUSH1 0xA0 SHL SUB SWAP1 SWAP2 AND DUP2 MSTORE PUSH1 0x20 SWAP1 RETURN JUMPDEST ISZERO PUSH2 0xEF1 JUMPI JUMP JUMPDEST PUSH1 0x40 MLOAD PUSH3 0x461BCD PUSH1 0xE5 SHL DUP2 MSTORE PUSH1 0x20 PUSH1 0x4 DUP3 ADD MSTORE PUSH1 0x22 PUSH1 0x24 DUP3 ADD MSTORE PUSH32 0x4F6E6C79206973737565722063616E2063616C6C20746869732066756E637469 PUSH1 0x44 DUP3 ADD MSTORE PUSH2 0x37B7 PUSH1 0xF1 SHL PUSH1 0x64 DUP3 ADD MSTORE PUSH1 0x84 SWAP1 REVERT JUMPDEST SWAP1 PUSH2 0xFCA PUSH1 0x7 PUSH2 0xF4F PUSH2 0x2EB JUMP JUMPDEST SWAP4 PUSH2 0xF59 DUP2 PUSH2 0x5AE JUMP JUMPDEST DUP6 MSTORE PUSH2 0xF67 PUSH1 0x1 DUP3 ADD PUSH2 0x5AE JUMP JUMPDEST PUSH1 0x20 DUP7 ADD MSTORE PUSH2 0xF78 PUSH1 0x2 DUP3 ADD PUSH2 0x5AE JUMP JUMPDEST PUSH1 0x40 DUP7 ADD MSTORE PUSH1 0x3 DUP2 ADD SLOAD PUSH1 0x60 DUP7 ADD MSTORE PUSH1 0x4 DUP2 ADD SLOAD PUSH1 0xFF DUP2 DUP2 AND ISZERO ISZERO PUSH1 0x80 DUP9 ADD MSTORE PUSH2 0xFA9 SWAP2 PUSH1 0x8 SHR AND ISZERO ISZERO PUSH1 0xA0 DUP8 ADD MSTORE JUMP JUMPDEST PUSH2 0xFB5 PUSH1 0x5 DUP3 ADD PUSH2 0x5AE JUMP JUMPDEST PUSH1 0xC0 DUP7 ADD MSTORE PUSH1 0x6 DUP2 ADD SLOAD PUSH1 0xE0 DUP7 ADD MSTORE ADD PUSH2 0x5AE JUMP JUMPDEST PUSH2 0x100 DUP4 ADD MSTORE JUMP JUMPDEST ISZERO PUSH2 0xFD9 JUMPI JUMP JUMPDEST PUSH1 0x40 MLOAD PUSH3 0x461BCD PUSH1 0xE5 SHL DUP2 MSTORE PUSH1 0x20 PUSH1 0x4 DUP3 ADD MSTORE PUSH1 0x1A PUSH1 0x24 DUP3 ADD MSTORE PUSH32 0x436572746966696361746520616C726561647920697373756564000000000000 PUSH1 0x44 DUP3 ADD MSTORE PUSH1 0x64 SWAP1 REVERT JUMPDEST PUSH1 0x40 MLOAD SWAP1 PUSH1 0x20 DUP3 ADD DUP3 DUP2 LT PUSH1 0x1 PUSH1 0x1 PUSH1 0x40 SHL SUB DUP3 GT OR PUSH2 0x2E6 JUMPI PUSH1 0x40 MSTORE PUSH1 0x0 DUP3 MSTORE JUMP JUMPDEST SWAP1 PUSH1 0x1F DUP2 GT PUSH2 0x104F JUMPI POP POP POP JUMP JUMPDEST PUSH1 0x0 SWAP2 DUP3 MSTORE PUSH1 0x20 DUP3 KECCAK256 SWAP1 PUSH1 0x20 PUSH1 0x1F DUP6 ADD PUSH1 0x5 SHR DUP4 ADD SWAP5 LT PUSH2 0x108B JUMPI JUMPDEST PUSH1 0x1F ADD PUSH1 0x5 SHR ADD SWAP2 JUMPDEST DUP3 DUP2 LT PUSH2 0x1080 JUMPI POP POP POP JUMP JUMPDEST DUP2 DUP2 SSTORE PUSH1 0x1 ADD PUSH2 0x1074 JUMP JUMPDEST SWAP1 SWAP3 POP DUP3 SWAP1 PUSH2 0x106B JUMP JUMPDEST SWAP2 SWAP1 SWAP2 DUP3 MLOAD PUSH1 0x1 PUSH1 0x1 PUSH1 0x40 SHL SUB DUP2 GT PUSH2 0x2E6 JUMPI PUSH2 0x10BC DUP2 PUSH2 0x10B6 DUP5 SLOAD PUSH2 0x574 JUMP JUMPDEST DUP5 PUSH2 0x1041 JUMP JUMPDEST PUSH1 0x20 DUP1 PUSH1 0x1F DUP4 GT PUSH1 0x1 EQ PUSH2 0x10F8 JUMPI POP DUP2 SWAP3 SWAP4 SWAP5 PUSH1 0x0 SWAP3 PUSH2 0x10ED JUMPI JUMPDEST POP POP DUP2 PUSH1 0x1 SHL SWAP2 PUSH1 0x0 NOT SWAP1 PUSH1 0x3 SHL SHR NOT AND OR SWAP1 SSTORE JUMP JUMPDEST ADD MLOAD SWAP1 POP CODESIZE DUP1 PUSH2 0x10D7 JUMP JUMPDEST SWAP1 PUSH1 0x1F NOT DUP4 AND SWAP6 PUSH2 0x110E DUP6 PUSH1 0x0 MSTORE PUSH1 0x20 PUSH1 0x0 KECCAK256 SWAP1 JUMP JUMPDEST SWAP3 PUSH1 0x0 SWAP1 JUMPDEST DUP9 DUP3 LT PUSH2 0x114B JUMPI POP POP DUP4 PUSH1 0x1 SWAP6 SWAP7 SWAP8 LT PUSH2 0x1132 JUMPI JUMPDEST POP POP POP DUP2 SHL ADD SWAP1 SSTORE JUMP JUMPDEST ADD MLOAD PUSH1 0x0 NOT PUSH1 0xF8 DUP5 PUSH1 0x3 SHL AND SHR NOT AND SWAP1 SSTORE CODESIZE DUP1 DUP1 PUSH2 0x1128 JUMP JUMPDEST DUP1 PUSH1 0x1 DUP6 SWAP7 DUP3 SWAP5 SWAP7 DUP7 ADD MLOAD DUP2 SSTORE ADD SWAP6 ADD SWAP4 ADD SWAP1 PUSH2 0x1113 JUMP JUMPDEST PUSH1 0x7 PUSH2 0x100 PUSH2 0x5EC SWAP4 PUSH2 0x1177 DUP2 MLOAD DUP6 PUSH2 0x1095 JUMP JUMPDEST PUSH2 0x1188 PUSH1 0x20 DUP3 ADD MLOAD PUSH1 0x1 DUP7 ADD PUSH2 0x1095 JUMP JUMPDEST PUSH2 0x1199 PUSH1 0x40 DUP3 ADD MLOAD PUSH1 0x2 DUP7 ADD PUSH2 0x1095 JUMP JUMPDEST PUSH1 0x60 DUP2 ADD MLOAD PUSH1 0x3 DUP6 ADD SSTORE PUSH2 0x11E9 PUSH1 0x4 DUP6 ADD PUSH2 0x11CC PUSH2 0x11BA PUSH1 0x80 DUP6 ADD MLOAD ISZERO ISZERO SWAP1 JUMP JUMPDEST DUP3 SWAP1 PUSH1 0xFF DUP1 NOT DUP4 SLOAD AND SWAP2 ISZERO ISZERO AND OR SWAP1 SSTORE JUMP JUMPDEST PUSH1 0xA0 DUP4 ADD MLOAD ISZERO ISZERO DUP2 SLOAD PUSH2 0xFF00 NOT AND SWAP1 ISZERO ISZERO PUSH1 0x8 SHL PUSH2 0xFF00 AND OR SWAP1 SSTORE JUMP JUMPDEST PUSH2 0x11FA PUSH1 0xC0 DUP3 ADD MLOAD PUSH1 0x5 DUP7 ADD PUSH2 0x1095 JUMP JUMPDEST PUSH1 0xE0 DUP2 ADD MLOAD PUSH1 0x6 DUP6 ADD SSTORE ADD MLOAD SWAP2 ADD PUSH2 0x1095 JUMP JUMPDEST SWAP1 SWAP2 PUSH2 0x1224 PUSH2 0x36C SWAP4 PUSH1 0x40 DUP5 MSTORE PUSH1 0x40 DUP5 ADD SWAP1 PUSH2 0x654 JUMP JUMPDEST SWAP2 PUSH1 0x20 DUP2 DUP5 SUB SWAP2 ADD MSTORE PUSH2 0x654 JUMP JUMPDEST SWAP4 PUSH1 0x0 DUP1 MLOAD PUSH1 0x20 PUSH2 0x1AD9 DUP4 CODECOPY DUP2 MLOAD SWAP2 MSTORE SWAP4 PUSH2 0x12DA SWAP2 CALLER PUSH1 0x0 MSTORE PUSH1 0x1 PUSH1 0x20 MSTORE PUSH2 0x1261 PUSH1 0xFF PUSH1 0x40 PUSH1 0x0 KECCAK256 SLOAD AND PUSH2 0xEEA JUMP JUMPDEST PUSH2 0x127B PUSH2 0xA84 PUSH2 0xA7F DUP10 PUSH1 0x0 MSTORE PUSH1 0x4 PUSH1 0x20 MSTORE PUSH1 0x40 PUSH1 0x0 KECCAK256 SWAP1 JUMP JUMPDEST PUSH2 0x1283 PUSH2 0x2EB JUMP JUMPDEST SWAP2 DUP5 DUP4 MSTORE DUP6 PUSH1 0x20 DUP5 ADD MSTORE PUSH1 0x40 DUP4 ADD MSTORE TIMESTAMP PUSH1 0x60 DUP4 ADD MSTORE PUSH2 0x12A5 PUSH1 0x80 DUP4 ADD PUSH1 0x1 SWAP1 MSTORE JUMP JUMPDEST PUSH1 0x0 PUSH1 0xA0 DUP4 ADD MSTORE PUSH2 0x12B4 PUSH2 0x101E JUMP JUMPDEST PUSH1 0xC0 DUP4 ADD MSTORE PUSH1 0x0 PUSH1 0xE0 DUP4 ADD MSTORE PUSH2 0x100 DUP3 ADD MSTORE PUSH2 0xAFF DUP7 PUSH1 0x0 MSTORE PUSH1 0x4 PUSH1 0x20 MSTORE PUSH1 0x40 PUSH1 0x0 KECCAK256 SWAP1 JUMP JUMPDEST PUSH2 0x12E9 PUSH1 0x40 MLOAD SWAP3 DUP4 SWAP3 DUP4 PUSH2 0x120D JUMP JUMPDEST SUB SWAP1 LOG2 JUMP JUMPDEST SWAP3 SWAP1 SWAP2 SWAP3 PUSH1 0x0 SWAP1 CALLER DUP3 MSTORE PUSH1 0x1 SWAP4 PUSH1 0x20 DUP6 DUP2 MSTORE PUSH1 0x40 SWAP3 PUSH2 0x1312 PUSH1 0xFF DUP6 DUP8 KECCAK256 SLOAD AND PUSH2 0xEEA JUMP JUMPDEST PUSH2 0x132E DUP2 MLOAD DUP5 MLOAD DUP2 EQ SWAP1 DUP2 PUSH2 0x1455 JUMPI JUMPDEST DUP2 PUSH2 0x144A JUMPI JUMPDEST POP PUSH2 0x1460 JUMP JUMPDEST DUP5 DUP8 JUMPDEST PUSH2 0x1341 JUMPI JUMPDEST POP POP POP POP POP POP POP POP POP JUMP JUMPDEST DUP2 MLOAD DUP2 LT ISZERO PUSH2 0x1445 JUMPI DUP1 PUSH2 0x1358 PUSH2 0x143F SWAP3 DUP5 PUSH2 0x14E4 JUMP JUMPDEST MLOAD PUSH2 0x1409 DUP12 PUSH2 0x13CE DUP9 DUP13 PUSH2 0x13AB DUP8 PUSH2 0x13A4 DUP2 PUSH2 0x139D DUP2 PUSH2 0x1385 PUSH2 0xA7F DUP14 PUSH1 0x0 MSTORE PUSH1 0x4 PUSH1 0x20 MSTORE PUSH1 0x40 PUSH1 0x0 KECCAK256 SWAP1 JUMP JUMPDEST SWAP8 PUSH2 0x1398 PUSH1 0x80 SWAP10 PUSH2 0xA8C DUP12 DUP3 ADD MLOAD ISZERO ISZERO SWAP1 JUMP JUMPDEST PUSH2 0x14E4 JUMP JUMPDEST MLOAD SWAP8 PUSH2 0x14E4 JUMP JUMPDEST MLOAD SWAP3 PUSH2 0x14E4 JUMP JUMPDEST MLOAD SWAP1 PUSH2 0x13B5 PUSH2 0x2EB JUMP JUMPDEST SWAP5 DUP6 MSTORE DUP11 DUP6 ADD MSTORE DUP12 DUP5 ADD MSTORE TIMESTAMP PUSH1 0x60 DUP5 ADD MSTORE DUP3 ADD PUSH1 0x1 SWAP1 MSTORE JUMP JUMPDEST DUP10 PUSH1 0xA0 DUP3 ADD MSTORE PUSH2 0x13DC PUSH2 0x101E JUMP JUMPDEST PUSH1 0xC0 DUP3 ADD MSTORE DUP10 PUSH1 0xE0 DUP3 ADD MSTORE PUSH2 0x13EF PUSH2 0x101E JUMP JUMPDEST PUSH2 0x100 DUP3 ADD MSTORE PUSH2 0xAFF DUP4 PUSH1 0x0 MSTORE PUSH1 0x4 PUSH1 0x20 MSTORE PUSH1 0x40 PUSH1 0x0 KECCAK256 SWAP1 JUMP JUMPDEST PUSH1 0x0 DUP1 MLOAD PUSH1 0x20 PUSH2 0x1AD9 DUP4 CODECOPY DUP2 MLOAD SWAP2 MSTORE DUP12 PUSH2 0x1427 DUP5 PUSH2 0x13A4 DUP2 DUP12 PUSH2 0x14E4 JUMP JUMPDEST MLOAD SWAP1 PUSH2 0x1437 DUP11 MLOAD SWAP3 DUP4 SWAP3 DUP4 PUSH2 0x120D JUMP JUMPDEST SUB SWAP1 LOG2 PUSH2 0x14BA JUMP JUMPDEST DUP8 PUSH2 0x1331 JUMP JUMPDEST PUSH2 0x1336 JUMP JUMPDEST SWAP1 POP DUP8 MLOAD EQ CODESIZE PUSH2 0x1328 JUMP JUMPDEST DUP11 MLOAD DUP2 EQ SWAP2 POP PUSH2 0x1322 JUMP JUMPDEST ISZERO PUSH2 0x1467 JUMPI JUMP JUMPDEST PUSH1 0x40 MLOAD PUSH3 0x461BCD PUSH1 0xE5 SHL DUP2 MSTORE PUSH1 0x20 PUSH1 0x4 DUP3 ADD MSTORE PUSH1 0x15 PUSH1 0x24 DUP3 ADD MSTORE PUSH21 0x82E4E4C2F240D8CADCCEE8D040DAD2E6DAC2E8C6D PUSH1 0x5B SHL PUSH1 0x44 DUP3 ADD MSTORE PUSH1 0x64 SWAP1 REVERT JUMPDEST PUSH4 0x4E487B71 PUSH1 0xE0 SHL PUSH1 0x0 MSTORE PUSH1 0x11 PUSH1 0x4 MSTORE PUSH1 0x24 PUSH1 0x0 REVERT JUMPDEST PUSH1 0x0 NOT DUP2 EQ PUSH2 0x14C9 JUMPI PUSH1 0x1 ADD SWAP1 JUMP JUMPDEST PUSH2 0x14A4 JUMP JUMPDEST PUSH4 0x4E487B71 PUSH1 0xE0 SHL PUSH1 0x0 MSTORE PUSH1 0x32 PUSH1 0x4 MSTORE PUSH1 0x24 PUSH1 0x0 REVERT JUMPDEST DUP1 MLOAD DUP3 LT ISZERO PUSH2 0x14F8 JUMPI PUSH1 0x20 SWAP2 PUSH1 0x5 SHL ADD ADD SWAP1 JUMP JUMPDEST PUSH2 0x14CE JUMP JUMPDEST SWAP1 PUSH1 0x20 PUSH2 0x36C SWAP3 DUP2 DUP2 MSTORE ADD SWAP1 PUSH2 0x654 JUMP JUMPDEST SWAP2 SWAP1 DUP2 LT ISZERO PUSH2 0x14F8 JUMPI PUSH1 0x5 SHL ADD SWAP1 JUMP JUMPDEST SWAP3 DUP4 SWAP3 PUSH1 0x0 SWAP2 JUMPDEST DUP1 DUP4 LT PUSH2 0x155A JUMPI POP POP POP EQ SWAP1 DUP2 PUSH2 0x153A JUMPI POP SWAP1 JUMP JUMPDEST PUSH2 0x36C SWAP2 POP PUSH2 0x1553 SWAP1 PUSH1 0x0 MSTORE PUSH1 0x5 PUSH1 0x20 MSTORE PUSH1 0x40 PUSH1 0x0 KECCAK256 SWAP1 JUMP JUMPDEST SLOAD PUSH1 0xFF AND SWAP1 JUMP JUMPDEST SWAP2 SWAP4 POP SWAP2 PUSH2 0x15A7 SWAP1 PUSH2 0x156D DUP6 DUP5 DUP7 PUSH2 0x150E JUMP JUMPDEST CALLDATALOAD DUP1 DUP3 GT PUSH2 0x15B1 JUMPI PUSH1 0x40 DUP1 MLOAD PUSH1 0x20 DUP2 ADD SWAP4 DUP5 MSTORE SWAP1 DUP2 ADD SWAP2 SWAP1 SWAP2 MSTORE PUSH2 0x159E DUP2 PUSH1 0x60 DUP2 ADD JUMPDEST SUB PUSH1 0x1F NOT DUP2 ADD DUP4 MSTORE DUP3 PUSH2 0x2C5 JUMP JUMPDEST MLOAD SWAP1 KECCAK256 SWAP4 PUSH2 0x14BA JUMP JUMPDEST SWAP1 SWAP2 DUP5 SWAP4 SWAP3 PUSH2 0x1525 JUMP JUMPDEST PUSH1 0x40 DUP1 MLOAD PUSH1 0x20 DUP2 ADD SWAP3 DUP4 MSTORE SWAP1 DUP2 ADD SWAP3 SWAP1 SWAP3 MSTORE SWAP1 PUSH2 0x159E DUP2 PUSH1 0x60 DUP2 ADD PUSH2 0x1590 JUMP JUMPDEST PUSH1 0x0 MSTORE PUSH1 0x4 PUSH1 0x20 MSTORE PUSH1 0x40 PUSH1 0x0 KECCAK256 PUSH2 0x15E6 PUSH2 0x2EB JUMP JUMPDEST SWAP1 PUSH2 0x15F0 DUP2 PUSH2 0x5AE JUMP JUMPDEST DUP3 MSTORE PUSH2 0x15FE PUSH1 0x1 DUP3 ADD PUSH2 0x5AE JUMP JUMPDEST SWAP3 PUSH1 0x20 DUP4 ADD SWAP4 DUP5 MSTORE PUSH2 0x1612 PUSH1 0x2 DUP4 ADD PUSH2 0x5AE JUMP JUMPDEST SWAP3 PUSH1 0x40 DUP2 ADD SWAP4 DUP5 MSTORE PUSH2 0x168A PUSH2 0xB1F PUSH1 0x3 DUP6 ADD SLOAD SWAP5 PUSH1 0x60 DUP5 ADD SWAP6 DUP7 MSTORE PUSH2 0x167E PUSH1 0x7 PUSH1 0x4 DUP4 ADD SLOAD SWAP3 PUSH2 0x165D PUSH1 0xFF PUSH1 0x80 DUP10 ADD SWAP6 PUSH2 0x1650 DUP3 DUP3 AND DUP9 SWAP1 ISZERO ISZERO SWAP1 MSTORE JUMP JUMPDEST PUSH1 0x8 SHR AND ISZERO ISZERO PUSH1 0xA0 DUP10 ADD MSTORE JUMP JUMPDEST PUSH2 0x1669 PUSH1 0x5 DUP3 ADD PUSH2 0x5AE JUMP JUMPDEST PUSH1 0xC0 DUP9 ADD MSTORE PUSH1 0x6 DUP2 ADD SLOAD PUSH1 0xE0 DUP9 ADD MSTORE ADD PUSH2 0x5AE JUMP JUMPDEST PUSH2 0x100 DUP6 ADD MSTORE MLOAD ISZERO ISZERO SWAP1 JUMP JUMPDEST PUSH2 0x169D JUMPI MLOAD SWAP4 MLOAD SWAP3 MLOAD SWAP2 MLOAD PUSH1 0x1 SWAP5 SWAP4 SWAP3 SWAP2 JUMP JUMPDEST POP SWAP3 POP POP POP PUSH1 0x0 SWAP1 PUSH2 0x16AD PUSH2 0x101E JUMP JUMPDEST SWAP1 PUSH2 0x16B6 PUSH2 0x101E JUMP JUMPDEST SWAP1 PUSH2 0x16BF PUSH2 0x101E JUMP JUMPDEST SWAP1 PUSH1 0x0 SWAP1 JUMP JUMPDEST ISZERO PUSH2 0x16CC JUMPI JUMP JUMPDEST PUSH1 0x40 MLOAD PUSH3 0x461BCD PUSH1 0xE5 SHL DUP2 MSTORE PUSH1 0x20 PUSH1 0x4 DUP3 ADD MSTORE PUSH1 0x21 PUSH1 0x24 DUP3 ADD MSTORE PUSH32 0x4F6E6C792061646D696E2063616E2063616C6C20746869732066756E6374696F PUSH1 0x44 DUP3 ADD MSTORE PUSH1 0x37 PUSH1 0xF9 SHL PUSH1 0x64 DUP3 ADD MSTORE PUSH1 0x84 SWAP1 REVERT JUMPDEST ISZERO PUSH2 0x1722 JUMPI JUMP JUMPDEST PUSH1 0x40 MLOAD PUSH3 0x461BCD PUSH1 0xE5 SHL DUP2 MSTORE PUSH1 0x20 PUSH1 0x4 DUP3 ADD MSTORE PUSH1 0x1B PUSH1 0x24 DUP3 ADD MSTORE PUSH32 0x436572746966696361746520616C7265616479207265766F6B65640000000000 PUSH1 0x44 DUP3 ADD MSTORE PUSH1 0x64 SWAP1 REVERT JUMPDEST PUSH1 0x40 MLOAD RETURNDATASIZE PUSH1 0x0 DUP3 RETURNDATACOPY RETURNDATASIZE SWAP1 REVERT JUMPDEST ISZERO PUSH2 0x177A JUMPI JUMP JUMPDEST PUSH1 0x40 MLOAD PUSH3 0x461BCD PUSH1 0xE5 SHL DUP2 MSTORE PUSH1 0x20 PUSH1 0x4 DUP3 ADD MSTORE PUSH1 0x11 PUSH1 0x24 DUP3 ADD MSTORE PUSH17 0x496E76616C6964207369676E6174757265 PUSH1 0x78 SHL PUSH1 0x44 DUP3 ADD MSTORE PUSH1 0x64 SWAP1 REVERT JUMPDEST ISZERO PUSH2 0x17BA JUMPI JUMP JUMPDEST PUSH1 0x40 MLOAD PUSH3 0x461BCD PUSH1 0xE5 SHL DUP2 MSTORE PUSH1 0x20 PUSH1 0x4 DUP3 ADD MSTORE PUSH1 0x11 PUSH1 0x24 DUP3 ADD MSTORE PUSH17 0x29B4B3B732B9103737BA1034B9B9BAB2B9 PUSH1 0x79 SHL PUSH1 0x44 DUP3 ADD MSTORE PUSH1 0x64 SWAP1 REVERT JUMPDEST ISZERO PUSH2 0x17FA JUMPI JUMP JUMPDEST PUSH1 0x40 MLOAD PUSH3 0x461BCD PUSH1 0xE5 SHL DUP2 MSTORE PUSH1 0x20 PUSH1 0x4 DUP3 ADD MSTORE PUSH1 0xD PUSH1 0x24 DUP3 ADD MSTORE PUSH13 0x496E76616C6964206E6F6E6365 PUSH1 0x98 SHL PUSH1 0x44 DUP3 ADD MSTORE PUSH1 0x64 SWAP1 REVERT JUMPDEST SWAP7 SWAP6 SWAP2 SWAP5 SWAP3 SWAP6 SWAP4 SWAP1 SWAP4 DUP5 MLOAD PUSH1 0x20 SWAP4 DUP5 SWAP2 DUP3 DUP9 ADD KECCAK256 DUP9 MLOAD DUP4 DUP11 ADD KECCAK256 SWAP1 DUP11 MLOAD DUP5 DUP13 ADD KECCAK256 SWAP2 DUP13 DUP10 DUP9 MLOAD DUP8 DUP11 ADD KECCAK256 PUSH1 0x40 MLOAD SWAP6 DUP7 SWAP5 DUP10 DUP7 ADD SWAP7 PUSH2 0x18B6 SWAP6 DUP9 SWAP3 PUSH1 0xC0 SWAP5 SWAP2 SWAP8 SWAP7 SWAP6 SWAP3 PUSH1 0xE0 DUP6 ADD SWAP9 PUSH32 0x18F977E0D1A55AED3D0A7E8B895AE5680EE12B7648E9005CFC69F012FC9AC6B8 DUP7 MSTORE PUSH1 0x20 DUP7 ADD MSTORE PUSH1 0x40 DUP6 ADD MSTORE PUSH1 0x60 DUP5 ADD MSTORE PUSH1 0x80 DUP4 ADD MSTORE PUSH1 0xA0 DUP3 ADD MSTORE ADD MSTORE JUMP JUMPDEST SUB SWAP2 PUSH1 0x1F NOT SWAP3 DUP4 DUP2 ADD DUP3 MSTORE PUSH2 0x18CB SWAP1 DUP3 PUSH2 0x2C5 JUMP JUMPDEST MLOAD SWAP1 KECCAK256 PUSH1 0x3 SLOAD PUSH1 0x40 MLOAD PUSH2 0x1901 PUSH1 0xF0 SHL DUP7 DUP3 ADD SWAP1 DUP2 MSTORE PUSH1 0x2 DUP2 ADD SWAP3 SWAP1 SWAP3 MSTORE PUSH1 0x22 DUP3 ADD SWAP3 SWAP1 SWAP3 MSTORE SWAP2 DUP2 PUSH1 0x42 DUP5 ADD SUB SWAP1 DUP2 ADD DUP3 MSTORE PUSH2 0x1906 SWAP1 DUP3 PUSH2 0x2C5 JUMP JUMPDEST MLOAD SWAP1 KECCAK256 SWAP3 CALLDATASIZE SWAP1 PUSH2 0x1915 SWAP3 PUSH2 0x30B JUMP JUMPDEST PUSH2 0x191E SWAP1 PUSH2 0x1A66 JUMP JUMPDEST PUSH1 0x40 DUP1 MLOAD SWAP6 DUP7 MSTORE PUSH1 0xFF SWAP2 SWAP1 SWAP2 AND PUSH1 0x20 DUP7 ADD MSTORE DUP5 ADD SWAP2 SWAP1 SWAP2 MSTORE PUSH1 0x60 DUP4 ADD MSTORE PUSH1 0x0 DUP1 DUP1 MSTORE SWAP2 DUP3 SWAP1 PUSH1 0x80 SWAP1 GAS PUSH1 0x1 SWAP1 STATICCALL ISZERO PUSH2 0x1A61 JUMPI DUP1 MLOAD PUSH1 0x0 DUP1 MLOAD PUSH1 0x20 PUSH2 0x1AD9 DUP4 CODECOPY DUP2 MLOAD SWAP2 MSTORE SWAP8 PUSH2 0x12DA SWAP6 SWAP1 SWAP2 PUSH2 0x19E7 SWAP2 PUSH2 0x19CD SWAP1 PUSH2 0x1984 PUSH1 0x1 PUSH1 0x1 PUSH1 0xA0 SHL SUB DUP5 AND ISZERO ISZERO PUSH2 0x1773 JUMP JUMPDEST PUSH1 0x1 PUSH1 0x1 PUSH1 0xA0 SHL SUB DUP4 AND PUSH1 0x0 SWAP1 DUP2 MSTORE PUSH1 0x1 PUSH1 0x20 MSTORE PUSH1 0x40 SWAP1 KECCAK256 PUSH2 0x19AE SWAP1 PUSH2 0x19A9 SWAP1 PUSH2 0x1553 JUMP JUMPDEST PUSH2 0x17B3 JUMP JUMPDEST PUSH1 0x1 PUSH1 0x1 PUSH1 0xA0 SHL SUB DUP4 AND PUSH1 0x0 SWAP1 DUP2 MSTORE PUSH1 0x2 PUSH1 0x20 MSTORE PUSH1 0x40 SWAP1 KECCAK256 SLOAD EQ PUSH2 0x17F3 JUMP JUMPDEST PUSH1 0x1 PUSH1 0x1 PUSH1 0xA0 SHL SUB AND PUSH1 0x0 SWAP1 DUP2 MSTORE PUSH1 0x2 PUSH1 0x20 MSTORE PUSH1 0x40 SWAP1 KECCAK256 SWAP1 JUMP JUMPDEST PUSH2 0x19F1 DUP2 SLOAD PUSH2 0x14BA JUMP JUMPDEST SWAP1 SSTORE PUSH2 0x1A0D PUSH2 0xA84 PUSH2 0xA7F DUP12 PUSH1 0x0 MSTORE PUSH1 0x4 PUSH1 0x20 MSTORE PUSH1 0x40 PUSH1 0x0 KECCAK256 SWAP1 JUMP JUMPDEST DUP7 PUSH2 0x1A16 PUSH2 0x2EB JUMP JUMPDEST DUP8 DUP2 MSTORE SWAP5 DUP6 ADD MSTORE PUSH1 0x40 DUP5 ADD MSTORE TIMESTAMP PUSH1 0x60 DUP5 ADD MSTORE PUSH1 0x1 PUSH1 0x80 DUP5 ADD MSTORE DUP1 PUSH1 0xA0 DUP5 ADD MSTORE PUSH2 0x1A3D PUSH2 0x101E JUMP JUMPDEST PUSH1 0xC0 DUP5 ADD MSTORE PUSH1 0xE0 DUP4 ADD MSTORE PUSH2 0x100 DUP3 ADD MSTORE PUSH2 0xAFF DUP7 PUSH1 0x0 MSTORE PUSH1 0x4 PUSH1 0x20 MSTORE PUSH1 0x40 PUSH1 0x0 KECCAK256 SWAP1 JUMP JUMPDEST PUSH2 0x1767 JUMP JUMPDEST PUSH1 0x41 DUP2 MLOAD SUB PUSH2 0x1A9C JUMPI PUSH1 0x20 DUP2 ADD MLOAD SWAP2 PUSH1 0x60 PUSH1 0x40 DUP4 ADD MLOAD SWAP3 ADD MLOAD PUSH1 0x0 BYTE SWAP1 PUSH1 0x1B DUP3 LT PUSH2 0x1A8D JUMPI JUMP JUMPDEST SWAP1 PUSH1 0x1B ADD PUSH1 0xFF DUP2 GT PUSH2 0x14C9 JUMPI SWAP1 JUMP JUMPDEST PUSH1 0x40 MLOAD PUSH3 0x461BCD PUSH1 0xE5 SHL DUP2 MSTORE PUSH1 0x20 PUSH1 0x4 DUP3 ADD MSTORE PUSH1 0x14 PUSH1 0x24 DUP3 ADD MSTORE PUSH20 0xC4C2C840E6D2CEDCC2E8EAE4CA40D8CADCCEE8D PUSH1 0x63 SHL PUSH1 0x44 DUP3 ADD MSTORE PUSH1 0x64 SWAP1 REVERT INVALID 0x23 0xCB ADDMOD MUL PUSH30 0x6CF3F884123DC2FCB28589D27C93A6EFDD5273282B92E1BAB97671A26469 PUSH17 0x667358221220B7A8A62D91DAE9A6581C53 0xA8 0xE1 0x5D BYTE PUSH31 0xD60D95EFFEBA68FEC41F2B4D17103E2A64736F6C6343000813003300000000 "},"methodIdentifiers":{"CERT_TYPEHASH()":"03b3500a","DOMAIN_SEPARATOR()":"3644e515","EIP712_DOMAIN_TYPEHASH()":"c7977be7","addIssuer(address)":"20694db0","admin()":"f851a440","batchRoots(bytes32)":"e7a315a4","certificates(bytes32)":"742f0688","getCertificate(bytes32)":"f333fe08","isIssuer(address)":"877b9a67","issueBatch(bytes32[],string[],string[],string[])":"ab740d39","issueBatchRoot(bytes32,string)":"9fef5b07","issueCertificate(bytes32,string,string,string)":"a246b968","issueCertificateWithCid(bytes32,string,string,string,string)":"46f63913","issueWithSig(bytes32,string,string,string,string,uint256,bytes)":"a02006e5","issuers(address)":"38a7543e","nonces(address)":"7ecebe00","removeIssuer(address)":"47bc7093","revokeCertificate(bytes32,string)":"5bf4adfb","simpleVerify(bytes32)":"3aa24742","verifyCertificate(bytes32)":"850c1768","verifyLeaf(bytes32,bytes32,bytes32[])":"d8e4a88a"}}}}}