{
  "_format": "hh-sol-artifact-1",
  "contractName": "CertificateRegistry",
  "sourceName": "contracts/Certificate.sol",
  "abi": [
    {
      "inputs": [],
      "stateMutability": "nonpayable",
      "type": "constructor"
    },
    {
      "anonymous": false,
      "inputs": [
        {
          "indexed": true,
          "internalType": "bytes32",
          "name": "certHash",
          "type": "bytes32"
        },
        {
          "indexed": false,
          "internalType": "string",
          "name": "studentId",
          "type": "string"
        },
        {
          "indexed": false,
          "internalType": "string",
          "name": "studentName",
          "type": "string"
        }
      ],
      "name": "CertificateIssued",
      "type": "event"
    },
    {
      "anonymous": false,
      "inputs": [
        {
          "indexed": true,
          "internalType": "bytes32",
          "name": "certHash",
          "type": "bytes32"
        },
        {
          "indexed": false,
          "internalType": "bool",
          "name": "isValid",
          "type": "bool"
        }
      ],
      "name": "CertificateVerified",
      "type": "event"
    },
    {
      "inputs": [],
      "name": "admin",
      "outputs": [
        {
          "internalType": "address",
          "name": "",
          "type": "address"
        }
      ],
      "stateMutability": "view",
      "type": "function"
    },
    {
      "inputs": [
        {
          "internalType": "bytes32",
          "name": "",
          "type": "bytes32"
        }
      ],
      "name": "certificates",
      "outputs": [
        {
          "internalType": "string",
          "name": "studentId",
          "type": "string"
        },
        {
          "internalType": "string",
          "name": "studentName",
          "type": "string"
        },
        {
          "internalType": "string",
          "name": "degree",
          "type": "string"
        },
        {
          "internalType": "uint256",
          "name": "issueDate",
          "type": "uint256"
        },
        {
          "internalType": "bool",
          "name": "isIssued",
          "type": "bool"
        }
      ],
      "stateMutability": "view",
      "type": "function"
    },
    {
      "inputs": [
        {
          "internalType": "bytes32",
          "name": "_certHash",
          "type": "bytes32"
        },
        {
          "internalType": "string",
          "name": "_studentId",
          "type": "string"
        },
        {
          "internalType": "string",
          "name": "_studentName",
          "type": "string"
        },
        {
          "internalType": "string",
          "name": "_degree",
          "type": "string"
        }
      ],
      "name": "issueCertificate",
      "outputs": [],
      "stateMutability": "nonpayable",
      "type": "function"
    },
    {
      "inputs": [
        {
          "internalType": "bytes32",
          "name": "_certHash",
          "type": "bytes32"
        }
      ],
      "name": "simpleVerify",
      "outputs": [
        {
          "internalType": "bool",
          "name": "",
          "type": "bool"
        }
      ],
      "stateMutability": "view",
      "type": "function"
    },
    {
      "inputs": [
        {
          "internalType": "bytes32",
          "name": "_certHash",
          "type": "bytes32"
        }
      ],
      "name": "verifyCertificate",
      "outputs": [
        {
          "internalType": "bool",
          "name": "",
          "type": "bool"
        },
        {
          "internalType": "string",
          "name": "",
          "type": "string"
        },
        {
          "internalType": "string",
          "name": "",
          "type": "string"
        },
        {
          "internalType": "string",
          "name": "",
          "type": "string"
        },
        {
          "internalType": "uint256",
          "name": "",
          "type": "uint256"
        }
      ],
      "stateMutability": "view",
      "type": "function"
    }
  ],
  "bytecode": "0x608060405234801561001057600080fd5b50336000806101000a81548173ffffffffffffffffffffffffffffffffffffffff021916908373ffffffffffffffffffffffffffffffffffffffff160217905550611072806100606000396000f3fe608060405234801561001057600080fd5b50600436106100575760003560e01c80633aa247421461005c578063742f06881461008c578063850c1768146100c0578063a246b968146100f4578063f851a44014610110575b600080fd5b61007660048036038101906100719190610801565b61012e565b6040516100839190610849565b60405180910390f35b6100a660048036038101906100a19190610801565b61015b565b6040516100b795949392919061090d565b60405180910390f35b6100da60048036038101906100d59190610801565b610336565b6040516100eb959493929190610975565b60405180910390f35b61010e60048036038101906101099190610b12565b6105b5565b005b610118610793565b6040516101259190610c0e565b60405180910390f35b60006001600083815260200190815260200160002060040160009054906101000a900460ff169050919050565b600160205280600052604060002060009150905080600001805461017e90610c58565b80601f01602080910402602001604051908101604052809291908181526020018280546101aa90610c58565b80156101f75780601f106101cc576101008083540402835291602001916101f7565b820191906000526020600020905b8154815290600101906020018083116101da57829003601f168201915b50505050509080600101805461020c90610c58565b80601f016020809104026020016040519081016040528092919081815260200182805461023890610c58565b80156102855780601f1061025a57610100808354040283529160200191610285565b820191906000526020600020905b81548152906001019060200180831161026857829003601f168201915b50505050509080600201805461029a90610c58565b80601f01602080910402602001604051908101604052809291908181526020018280546102c690610c58565b80156103135780601f106102e857610100808354040283529160200191610313565b820191906000526020600020905b8154815290600101906020018083116102f657829003601f168201915b5050505050908060030154908060040160009054906101000a900460ff16905085565b60006060806060600080600160008881526020019081526020016000206040518060a001604052908160008201805461036e90610c58565b80601f016020809104026020016040519081016040528092919081815260200182805461039a90610c58565b80156103e75780601f106103bc576101008083540402835291602001916103e7565b820191906000526020600020905b8154815290600101906020018083116103ca57829003601f168201915b5050505050815260200160018201805461040090610c58565b80601f016020809104026020016040519081016040528092919081815260200182805461042c90610c58565b80156104795780601f1061044e57610100808354040283529160200191610479565b820191906000526020600020905b81548152906001019060200180831161045c57829003601f168201915b5050505050815260200160028201805461049290610c58565b80601f01602080910402602001604051908101604052809291908181526020018280546104be90610c58565b801561050b5780601f106104e05761010080835404028352916020019161050b565b820191906000526020600020905b8154815290600101906020018083116104ee57829003601f168201915b50505050508152602001600382015481526020016004820160009054906101000a900460ff1615151515815250509050806080015161058a5760008060405180602001604052806000815250906040518060200160405280600081525090604051806020016040528060008152509095509550955095509550506105ac565b6001816000015182602001518360400151846060015195509550955095509550505b91939590929450565b60008054906101000a900473ffffffffffffffffffffffffffffffffffffffff1673ffffffffffffffffffffffffffffffffffffffff163373ffffffffffffffffffffffffffffffffffffffff1614610643576040517f08c379a000000000000000000000000000000000000000000000000000000000815260040161063a90610cfb565b60405180910390fd5b6001600085815260200190815260200160002060040160009054906101000a900460ff16156106a7576040517f08c379a000000000000000000000000000000000000000000000000000000000815260040161069e90610d67565b60405180910390fd5b6040518060a00160405280848152602001838152602001828152602001428152602001600115158152506001600086815260200190815260200160002060008201518160000190816106f99190610f33565b50602082015181600101908161070f9190610f33565b5060408201518160020190816107259190610f33565b506060820151816003015560808201518160040160006101000a81548160ff021916908315150217905550905050837f23cb08027d6cf3f884123dc2fcb28589d27c93a6efdd5273282b92e1bab976718484604051610785929190611005565b60405180910390a250505050565b60008054906101000a900473ffffffffffffffffffffffffffffffffffffffff1681565b6000604051905090565b600080fd5b600080fd5b6000819050919050565b6107de816107cb565b81146107e957600080fd5b50565b6000813590506107fb816107d5565b92915050565b600060208284031215610817576108166107c1565b5b6000610825848285016107ec565b91505092915050565b60008115159050919050565b6108438161082e565b82525050565b600060208201905061085e600083018461083a565b92915050565b600081519050919050565b600082825260208201905092915050565b60005b8381101561089e578082015181840152602081019050610883565b60008484015250505050565b6000601f19601f8301169050919050565b60006108c682610864565b6108d0818561086f565b93506108e0818560208601610880565b6108e9816108aa565b840191505092915050565b6000819050919050565b610907816108f4565b82525050565b600060a082019050818103600083015261092781886108bb565b9050818103602083015261093b81876108bb565b9050818103604083015261094f81866108bb565b905061095e60608301856108fe565b61096b608083018461083a565b9695505050505050565b600060a08201905061098a600083018861083a565b818103602083015261099c81876108bb565b905081810360408301526109b081866108bb565b905081810360608301526109c481856108bb565b90506109d360808301846108fe565b9695505050505050565b600080fd5b600080fd5b7f4e487b7100000000000000000000000000000000000000000000000000000000600052604160045260246000fd5b610a1f826108aa565b810181811067ffffffffffffffff82111715610a3e57610a3d6109e7565b5b80604052505050565b6000610a516107b7565b9050610a5d8282610a16565b919050565b600067ffffffffffffffff821115610a7d57610a7c6109e7565b5b610a86826108aa565b9050602081019050919050565b82818337600083830152505050565b6000610ab5610ab084610a62565b610a47565b905082815260208101848484011115610ad157610ad06109e2565b5b610adc848285610a93565b509392505050565b600082601f830112610af957610af86109dd565b5b8135610b09848260208601610aa2565b91505092915050565b60008060008060808587031215610b2c57610b2b6107c1565b5b6000610b3a878288016107ec565b945050602085013567ffffffffffffffff811115610b5b57610b5a6107c6565b5b610b6787828801610ae4565b935050604085013567ffffffffffffffff811115610b8857610b876107c6565b5b610b9487828801610ae4565b925050606085013567ffffffffffffffff811115610bb557610bb46107c6565b5b610bc187828801610ae4565b91505092959194509250565b600073ffffffffffffffffffffffffffffffffffffffff82169050919050565b6000610bf882610bcd565b9050919050565b610c0881610bed565b82525050565b6000602082019050610c236000830184610bff565b92915050565b7f4e487b7100000000000000000000000000000000000000000000000000000000600052602260045260246000fd5b60006002820490506001821680610c7057607f821691505b602082108103610c8357610c82610c29565b5b50919050565b7f4f6e6c792061646d696e2063616e2063616c6c20746869732066756e6374696f60008201527f6e00000000000000000000000000000000000000000000000000000000000000602082015250565b6000610ce560218361086f565b9150610cf082610c89565b604082019050919050565b60006020820190508181036000830152610d1481610cd8565b9050919050565b7f436572746966696361746520616c726561647920697373756564000000000000600082015250565b6000610d51601a8361086f565b9150610d5c82610d1b565b602082019050919050565b60006020820190508181036000830152610d8081610d44565b9050919050565b60008190508160005260206000209050919050565b60006020601f8301049050919050565b600082821b905092915050565b600060088302610de97fffffffffffffffffffffffffffffffffffffffffffffffffffffffffffffffff82610dac565b610df38683610dac565b95508019841693508086168417925050509392505050565b6000819050919050565b6000610e30610e2b610e26846108f4565b610e0b565b6108f4565b9050919050565b6000819050919050565b610e4a83610e15565b610e5e610e5682610e37565b848454610db9565b825550505050565b600090565b610e73610e66565b610e7e818484610e41565b505050565b5b81811015610ea257610e97600082610e6b565b600181019050610e84565b5050565b601f821115610ee757610eb881610d87565b610ec184610d9c565b81016020851015610ed0578190505b610ee4610edc85610d9c565b830182610e83565b50505b505050565b600082821c905092915050565b6000610f0a60001984600802610eec565b1980831691505092915050565b6000610f238383610ef9565b9150826002028217905092915050565b610f3c82610864565b67ffffffffffffffff811115610f5557610f546109e7565b5b610f5f8254610c58565b610f6a828285610ea6565b600060209050601f831160018114610f9d5760008415610f8b578287015190505b610f958582610f17565b865550610ffd565b601f198416610fab86610d87565b60005b82811015610fd357848901518255600182019150602085019450602081019050610fae565b86831015610ff05784890151610fec601f891682610ef9565b8355505b6001600288020188555050505b505050505050565b6000604082019050818103600083015261101f81856108bb565b9050818103602083015261103381846108bb565b9050939250505056fea264697066735822122081ae9b0da08289daa52fb0df63a8d96336249dad9a758edb1817c16ec5286c0e64736f6c63430008130033",
  "linkReferences": {},
  "deployedLinkReferences": {}
}