{
  "_format": "hh-sol-artifact-1",
  "contractName": "CertificateRegistry",
  "sourceName": "contracts/Certificate.sol",
  "abi": [
    {
      "inputs": [],
      "stateMutability": "nonpayable",
      "type": "constructor"
    },
    {
      "anonymous": false,
      "inputs": [
        {
          "indexed": true,
          "internalType": "bytes32",
          "name": "root",
          "type": "bytes32"
        },
        {
          "indexed": false,
          "internalType": "string",
          "name": "batchId",
          "type": "string"
        }
      ],
      "name": "BatchRootIssued",
      "type": "event"
    },
    {
      "anonymous": false,
      "inputs": [
        {
          "indexed": true,
          "internalType": "bytes32",
          "name": "certHash",
          "type": "bytes32"
        },
        {
          "indexed": false,
          "internalType": "string",
          "name": "studentId",
          "type": "string"
        },
        {
          "indexed": false,
          "internalType": "string",
          "name": "studentName",
          "type": "string"
        }
      ],
      "name": "CertificateIssued",
      "type": "event"
    },
    {
      "anonymous": false,
      "inputs": [
        {
          "indexed": true,
          "internalType": "bytes32",
          "name": "certHash",
          "type": "bytes32"
        },
        {
          "indexed": false,
          "internalType": "string",
          "name": "reason",
          "type": "string"
        }
      ],
      "name": "CertificateRevoked",
      "type": "event"
    },
    {
      "anonymous": false,
      "inputs": [
        {
          "indexed": true,
          "internalType": "bytes32",
          "name": "certHash",
          "type": "bytes32"
        },
        {
          "indexed": false,
          "internalType": "bool",
          "name": "isValid",
          "type": "bool"
        }
      ],
      "name": "CertificateVerified",
      "type": "event"
    },
    {
      "anonymous": false,
      "inputs": [
        {
          "indexed": true,
          "internalType": "address",
          "name": "account",
          "type": "address"
        }
      ],
      "name": "IssuerAdded",
      "type": "event"
    },
    {
      "anonymous": false,
      "inputs": [
        {
          "indexed": true,
          "internalType": "address",
          "name": "account",
          "type": "address"
        }
      ],
      "name": "IssuerRemoved",
      "type": "event"
    },
    {
      "inputs": [],
      "name": "CERT_TYPEHASH",
      "outputs": [
        {
          "internalType": "bytes32",
          "name": "",
          "type": "bytes32"
        }
      ],
      "stateMutability": "view",
      "type": "function"
    },
    {
      "inputs": [],
      "name": "DOMAIN_SEPARATOR",
      "outputs": [
        {
          "internalType": "bytes32",
          "name": "",
          "type": "bytes32"
        }
      ],
      "stateMutability": "view",
      "type": "function"
    },
    {
      "inputs": [],
      "name": "EIP712_DOMAIN_TYPEHASH",
      "outputs": [
        {
          "internalType": "bytes32",
          "name": "",
          "type": "bytes32"
        }
      ],
      "stateMutability": "view",
      "type": "function"
    },
    {
      "inputs": [
        {
          "internalType": "address",
          "name": "account",
          "type": "address"
        }
      ],
      "name": "addIssuer",
      "outputs": [],
      "stateMutability": "nonpayable",
      "type": "function"
    },
    {
      "inputs": [],
      "name": "admin",
      "outputs": [
        {
          "internalType": "address",
          "name": "",
          "type": "address"
        }
      ],
      "stateMutability": "view",
      "type": "function"
    },
    {
      "inputs": [
        {
          "internalType": "bytes32",
          "name": "",
          "type": "bytes32"
        }
      ],
      "name": "batchRoots",
      "outputs": [
        {
          "internalType": "bool",
          "name": "",
          "type": "bool"
        }
      ],
      "stateMutability": "view",
      "type": "function"
    },
    {
      "inputs": [
        {
          "internalType": "bytes32",
          "name": "",
          "type": "bytes32"
        }
      ],
      "name": "certificates",
      "outputs": [
        {
          "internalType": "string",
          "name": "studentId",
          "type": "string"
        },
        {
          "internalType": "string",
          "name": "studentName",
          "type": "string"
        },
        {
          "internalType": "string",
          "name": "degree",
          "type": "string"
        },
        {
          "internalType": "uint256",
          "name": "issueDate",
          "type": "uint256"
        },
        {
          "internalType": "bool",
          "name": "isIssued",
          "type": "bool"
        },
        {
          "internalType": "bool",
          "name": "revoked",
          "type": "bool"
        },
        {
          "internalType": "string",
          "name": "revokeReason",
          "type": "string"
        },
        {
          "internalType": "uint256",
          "name": "revokeDate",
          "type": "uint256"
        },
        {
          "internalType": "string",
          "name": "ipfsCid",
          "type": "string"
        }
      ],
      "stateMutability": "view",
      "type": "function"
    },
    {
      "inputs": [
        {
          "internalType": "bytes32",
          "name": "_certHash",
          "type": "bytes32"
        }
      ],
      "name": "getCertificate",
      "outputs": [
        {
          "internalType": "bool",
          "name": "",
          "type": "bool"
        },
        {
          "internalType": "string",
          "name": "",
          "type": "string"
        },
        {
          "internalType": "string",
          "name": "",
          "type": "string"
        },
        {
          "internalType": "string",
          "name": "",
          "type": "string"
        },
        {
          "internalType": "uint256",
          "name": "",
          "type": "uint256"
        },
        {
          "internalType": "bool",
          "name": "",
          "type": "bool"
        },
        {
          "internalType": "string",
          "name": "",
          "type": "string"
        },
        {
          "internalType": "uint256",
          "name": "",
          "type": "uint256"
        },
        {
          "internalType": "string",
          "name": "",
          "type": "string"
        }
      ],
      "stateMutability": "view",
      "type": "function"
    },
    {
      "inputs": [
        {
          "internalType": "address",
          "name": "account",
          "type": "address"
        }
      ],
      "name": "isIssuer",
      "outputs": [
        {
          "internalType": "bool",
          "name": "",
          "type": "bool"
        }
      ],
      "stateMutability": "view",
      "type": "function"
    },
    {
      "inputs": [
        {
          "internalType": "bytes32[]",
          "name": "_hashes",
          "type": "bytes32[]"
        },
        {
          "internalType": "string[]",
          "name": "_studentIds",
          "type": "string[]"
        },
        {
          "internalType": "string[]",
          "name": "_studentNames",
          "type": "string[]"
        },
        {
          "internalType": "string[]",
          "name": "_degrees",
          "type": "string[]"
        }
      ],
      "name": "issueBatch",
      "outputs": [],
      "stateMutability": "nonpayable",
      "type": "function"
    },
    {
      "inputs": [
        {
          "internalType": "bytes32",
          "name": "_root",
          "type": "bytes32"
        },
        {
          "internalType": "string",
          "name": "_batchId",
          "type": "string"
        }
      ],
      "name": "issueBatchRoot",
      "outputs": [],
      "stateMutability": "nonpayable",
      "type": "function"
    },
    {
      "inputs": [
        {
          "internalType": "bytes32",
          "name": "_certHash",
          "type": "bytes32"
        },
        {
          "internalType": "string",
          "name": "_studentId",
          "type": "string"
        },
        {
          "internalType": "string",
          "name": "_studentName",
          "type": "string"
        },
        {
          "internalType": "string",
          "name": "_degree",
          "type": "string"
        }
      ],
      "name": "issueCertificate",
      "outputs": [],
      "stateMutability": "nonpayable",
      "type": "function"
    },
    {
      "inputs": [
        {
          "internalType": "bytes32",
          "name": "_certHash",
          "type": "bytes32"
        },
        {
          "internalType": "string",
          "name": "_studentId",
          "type": "string"
        },
        {
          "internalType": "string",
          "name": "_studentName",
          "type": "string"
        },
        {
          "internalType": "string",
          "name": "_degree",
          "type": "string"
        },
        {
          "internalType": "string",
          "name": "_ipfsCid",
          "type": "string"
        }
      ],
      "name": "issueCertificateWithCid",
      "outputs": [],
      "stateMutability": "nonpayable",
      "type": "function"
    },
    {
      "inputs": [
        {
          "internalType": "bytes32",
          "name": "_certHash",
          "type": "bytes32"
        },
        {
          "internalType": "string",
          "name": "_studentId",
          "type": "string"
        },
        {
          "internalType": "string",
          "name": "_studentName",
          "type": "string"
        },
        {
          "internalType": "string",
          "name": "_degree",
          "type": "string"
        },
        {
          "internalType": "string",
          "name": "_ipfsCid",
          "type": "string"
        },
        {
          "internalType": "uint256",
          "name": "_nonce",
          "type": "uint256"
        },
        {
          "internalType": "bytes",
          "name": "_signature",
          "type": "bytes"
        }
      ],
      "name": "issueWithSig",
      "outputs": [],
      "stateMutability": "nonpayable",
      "type": "function"
    },
    {
      "inputs": [
        {
          "internalType": "address",
          "name": "",
          "type": "address"
        }
      ],
      "name": "issuers",
      "outputs": [
        {
          "internalType": "bool",
          "name": "",
          "type": "bool"
        }
      ],
      "stateMutability": "view",
      "type": "function"
    },
    {
      "inputs": [
        {
          "internalType": "address",
          "name": "",
          "type": "address"
        }
      ],
      "name": "nonces",
      "outputs": [
        {
          "internalType": "uint256",
          "name": "",
          "type": "uint256"
        }
      ],
      "stateMutability": "view",
      "type": "function"
    },
    {
      "inputs": [
        {
          "internalType": "address",
          "name": "account",
          "type": "address"
        }
      ],
      "name": "removeIssuer",
      "outputs": [],
      "stateMutability": "nonpayable",
      "type": "function"
    },
    {
      "inputs": [
        {
          "internalType": "bytes32",
          "name": "_certHash",
          "type": "bytes32"
        },
        {
          "internalType": "string",
          "name": "_reason",
          "type": "string"
        }
      ],
      "name": "revokeCertificate",
      "outputs": [],
      "stateMutability": "nonpayable",
      "type": "function"
    },
    {
      "inputs": [
        {
          "internalType": "bytes32",
          "name": "_certHash",
          "type": "bytes32"
        }
      ],
      "name": "simpleVerify",
      "outputs": [
        {
          "internalType": "bool",
          "name": "",
          "type": "bool"
        }
      ],
      "stateMutability": "view",
      "type": "function"
    },
    {
      "inputs": [
        {
          "internalType": "bytes32",
          "name": "_certHash",
          "type": "bytes32"
        }
      ],
      "name": "verifyCertificate",
      "outputs": [
        {
          "internalType": "bool",
          "name": "",
          "type": "bool"
        },
        {
          "internalType": "string",
          "name": "",
          "type": "string"
        },
        {
          "internalType": "string",
          "name": "",
          "type": "string"
        },
        {
          "internalType": "string",
          "name": "",
          "type": "string"
        },
        {
          "internalType": "uint256",
          "name": "",
          "type": "uint256"
        }
      ],
      "stateMutability": "view",
      "type": "function"
    },
    {
      "inputs": [
        {
          "internalType": "bytes32",
          "name": "_root",
          "type": "bytes32"
        },
        {
          "internalType": "bytes32",
          "name": "_leaf",
          "type": "bytes32"
        },
        {
          "internalType": "bytes32[]",
          "name": "_proof",
          "type": "bytes32[]"
        }
      ],
      "name": "verifyLeaf",
      "outputs": [
        {
          "internalType": "bool",
          "name": "",
          "type": "bool"
        }
      ],
      "stateMutability": "view",
      "type": "function"
    }
  ],
  "bytecode": "0x608060408181523461010857601360206000933360018060a01b031986541617855533855260018252838520600160ff1982541617905561003f8161010d565b828152017f4365727469666963617465526567697374727900000000000000000000000000815220906001602082516100778161010d565b82815201603160f81b8152209080519160208301937f8b73c3c69bb8fe3d512ecc4cf759cc79239f7b179b0ffacaa9a75d522b39400f85528284015260608301524660808301523060a083015260a0825260c082019382851060018060401b038611176100f45750839052519020600355611b2e908161013f8239f35b634e487b7160e01b81526041600452602490fd5b600080fd5b604081019081106001600160401b0382111761012857604052565b634e487b7160e01b600052604160045260246000fdfe6080604052600436101561001257600080fd5b60003560e01c806303b3500a1461016257806320694db01461015d5780633644e5151461015857806338a7543e146101305780633aa247421461015357806346f639131461014e57806347bc7093146101495780635bf4adfb14610144578063742f06881461013f5780637ecebe001461013a578063850c176814610135578063877b9a67146101305780639fef5b071461012b578063a02006e514610126578063a246b96814610121578063ab740d391461011c578063c7977be714610117578063d8e4a88a14610112578063e7a315a41461010d578063f333fe08146101085763f851a4401461010357600080fd5b610ec1565b610dd3565b610d3f565b610cce565b610c93565b610bc0565b6109d2565b610932565b610831565b610247565b6107c5565b610796565b61070a565b610488565b6103f7565b61036f565b61027b565b610229565b6101c4565b3461019d57600036600319011261019d5760206040517f18f977e0d1a55aed3d0a7e8b895ae5680ee12b7648e9005cfc69f012fc9ac6b88152f35b600080fd5b602090600319011261019d576004356001600160a01b038116810361019d5790565b3461019d576101d2366101a2565b60018060a01b036000916101ea8284541633146116c5565b16808252600160205260408220600160ff198254161790557f05e7c881d716bee8cb7ed92293133ba156704252439e5c502c277448f04e20c28280a280f35b3461019d57600036600319011261019d576020600354604051908152f35b3461019d576001600160a01b0361025d366101a2565b166000526001602052602060ff604060002054166040519015158152f35b3461019d57602036600319011261019d576004356000526004602052602060ff600460406000200154166040519015158152f35b634e487b7160e01b600052604160045260246000fd5b90601f801991011681019081106001600160401b038211176102e657604052565b6102af565b6040519061012082018281106001600160401b038211176102e657604052565b9291926001600160401b0382116102e65760405191610334601f8201601f1916602001846102c5565b82948184528183011161019d578281602093846000960137010152565b9080601f8301121561019d5781602061036c9335910161030b565b90565b3461019d5760a036600319011261019d576001600160401b0360243581811161019d576103a0903690600401610351565b60443582811161019d576103b8903690600401610351565b60643583811161019d576103d0903690600401610351565b9060843593841161019d576103ec6103f5943690600401610351565b92600435611232565b005b3461019d57610405366101a2565b60018060a01b0360009161041d8284541633146116c5565b16808252600160205260408220805460ff191690557faf66545c919a3be306ee446d8f42a9558b5b022620df880517bc9593ec0f2d528280a280f35b90604060031983011261019d5760043591602435906001600160401b03821161019d5761036c91600401610351565b3461019d5761049636610459565b6104ab60018060a01b036000541633146116c5565b816000526004602052604060002090600482019081549260ff841615610536576105126105319361050360ff7f6a67f6498e0156955d3a658d7124084b43548b0eaa26ee2105ccf42059efe1129760081c161561171b565b805461ff001916610100179055565b61051f8260058301611095565b600642910155604051918291826114fd565b0390a2005b60405162461bcd60e51b815260206004820152601660248201527510d95c9d1a599a58d85d19481b9bdd081a5cdcdd595960521b6044820152606490fd5b90600182811c921680156105a4575b602083101461058e57565b634e487b7160e01b600052602260045260246000fd5b91607f1691610583565b90604051918260008254926105c284610574565b90818452600194858116908160001461063157506001146105ee575b50506105ec925003836102c5565b565b9093915060005260209081600020936000915b8183106106195750506105ec935082010138806105de565b85548884018501529485019487945091830191610601565b9150506105ec94506020925060ff191682840152151560051b82010138806105de565b919082519283825260005b848110610680575050826000602080949584010152601f8019910116010190565b60208183018101518483018201520161065f565b959161036c9997936106c76106d5926106b96106f69995610120808d528c0190610654565b908a820360208c0152610654565b9088820360408a0152610654565b93606087015215156080860152151560a085015283820360c0850152610654565b9260e0820152610100818403910152610654565b3461019d57602036600319011261019d5760043560005260046020526040600020610734816105ae565b610792610743600184016105ae565b91610750600285016105ae565b936003810154916004820154610768600584016105ae565b9161077a6007600686015495016105ae565b9460405198899860ff808660081c169516938a610694565b0390f35b3461019d576001600160a01b036107ac366101a2565b1660005260026020526020604060002054604051908152f35b3461019d57602036600319011261019d576108196108276107e76004356115d1565b93949295909161080b6040519788971515885260a0602089015260a0880190610654565b908682036040880152610654565b908482036060860152610654565b9060808301520390f35b3461019d5761083f36610459565b90600091338352600160205261085b60ff604085205416610eea565b818352600560205260ff6040842054166108ca576108c47f7d9f33e0c9946a95c11864ca04df3e2dfebc5d4d9a43bd0fe5b3662386a81ad9916108b86108ab856000526005602052604060002090565b805460ff19166001179055565b604051918291826114fd565b0390a280f35b60405162461bcd60e51b8152602060048201526013602482015272149bdbdd08185b1c9958591e481a5cdcdd5959606a1b6044820152606490fd5b9181601f8401121561019d578235916001600160401b03831161019d576020838186019501011161019d57565b3461019d5760e036600319011261019d576001600160401b0360243581811161019d5761096460049136908301610351565b60443583811161019d5761097b9036908401610351565b9160643584811161019d576109939036908301610351565b60843585811161019d576109aa9036908401610351565b9060c43595861161019d576109c56103f59636908501610905565b95909460a435943561182f565b3461019d57608036600319011261019d576001600160401b0360043560243582811161019d57610a06903690600401610351565b9160443581811161019d57610a1f903690600401610351565b60643591821161019d57610a46600080516020611ad9833981519152923690600401610351565b93610b046000953387526001602052610a6560ff604089205416610eea565b610a9a610a84610a7f886000526004602052604060002090565b610f41565b608081015115155b9081610b13575b5015610fd2565b610aa26102eb565b908382528460208301526040820152426060820152610ac46080820160019052565b8660a0820152610ad261101e565b60c08201528660e0820152610ae561101e565b610100820152610aff866000526004602052604060002090565b611163565b6108c46040519283928361120d565b60a00151159050610b23565b1590565b38610a93565b6001600160401b0381116102e65760051b60200190565b9080601f8301121561019d57813590610b5882610b29565b92610b6660405194856102c5565b828452602092838086019160051b8301019280841161019d57848301915b848310610b945750505050505090565b82356001600160401b03811161019d578691610bb584848094890101610351565b815201920191610b84565b3461019d57608036600319011261019d576001600160401b0360043581811161019d573660238201121561019d578060040135610bfc81610b29565b91610c0a60405193846102c5565b81835260209160248385019160051b8301019136831161019d57602401905b828210610c8457858560243582811161019d57610c4a903690600401610b40565b60443583811161019d57610c62903690600401610b40565b9060643593841161019d57610c7e6103f5943690600401610b40565b926112ee565b81358152908301908301610c29565b3461019d57600036600319011261019d5760206040517f8b73c3c69bb8fe3d512ecc4cf759cc79239f7b179b0ffacaa9a75d522b39400f8152f35b3461019d57606036600319011261019d576001600160401b0360443581811161019d573660238201121561019d57806004013591821161019d573660248360051b8301011161019d57610792916024610d2d920160243560043561151e565b60405190151581529081906020820190565b3461019d57602036600319011261019d576004356000526005602052602060ff604060002054166040519015158152f35b959193610dab61036c9a9894610d9d6106f69897610db99515158b526101208060208d01528b0190610654565b9089820360408b0152610654565b908782036060890152610654565b926080860152151560a085015283820360c0850152610654565b3461019d57602036600319011261019d5760043560005260046020526040600020610dfc6102eb565b610e05826105ae565b8152610792610e16600184016105ae565b9260208301938452610e2a600282016105ae565b60408401908152600382015460608501908152600483015460ff811615156080870190815293919060081c60ff16151560a08701908152610e6d600584016105ae565b9160c08801928352610eb0610ea1610e93600760068801549760e08d01988952016105ae565b97886101008c015251151590565b98519951955191519251151590565b9251935194604051998a998a610d70565b3461019d57600036600319011261019d576000546040516001600160a01b039091168152602090f35b15610ef157565b60405162461bcd60e51b815260206004820152602260248201527f4f6e6c79206973737565722063616e2063616c6c20746869732066756e63746960448201526137b760f11b6064820152608490fd5b90610fca6007610f4f6102eb565b93610f59816105ae565b8552610f67600182016105ae565b6020860152610f78600282016105ae565b604086015260038101546060860152600481015460ff81811615156080880152610fa99160081c16151560a0870152565b610fb5600582016105ae565b60c0860152600681015460e0860152016105ae565b610100830152565b15610fd957565b60405162461bcd60e51b815260206004820152601a60248201527f436572746966696361746520616c7265616479206973737565640000000000006044820152606490fd5b60405190602082018281106001600160401b038211176102e65760405260008252565b90601f811161104f57505050565b600091825260208220906020601f850160051c8301941061108b575b601f0160051c01915b82811061108057505050565b818155600101611074565b909250829061106b565b91909182516001600160401b0381116102e6576110bc816110b68454610574565b84611041565b602080601f83116001146110f85750819293946000926110ed575b50508160011b916000199060031b1c1916179055565b0151905038806110d7565b90601f1983169561110e85600052602060002090565b926000905b88821061114b57505083600195969710611132575b505050811b019055565b015160001960f88460031b161c19169055388080611128565b80600185968294968601518155019501930190611113565b60076101006105ec93611177815185611095565b611188602082015160018601611095565b611199604082015160028601611095565b606081015160038501556111e9600485016111cc6111ba6080850151151590565b829060ff801983541691151516179055565b60a08301511515815461ff00191690151560081b61ff0016179055565b6111fa60c082015160058601611095565b60e0810151600685015501519101611095565b909161122461036c93604084526040840190610654565b916020818403910152610654565b93600080516020611ad9833981519152936112da9133600052600160205261126160ff60406000205416610eea565b61127b610a84610a7f896000526004602052604060002090565b6112836102eb565b9184835285602084015260408301524260608301526112a56080830160019052565b600060a08301526112b461101e565b60c0830152600060e0830152610100820152610aff866000526004602052604060002090565b6112e96040519283928361120d565b0390a2565b92909192600090338252600193602085815260409261131260ff8587205416610eea565b61132e8151845181149081611455575b8161144a575b50611460565b84875b611341575b505050505050505050565b8151811015611445578061135861143f92846114e4565b516114098b6113ce888c6113ab876113a48161139d81611385610a7f8d6000526004602052604060002090565b97611398608099610a8c8b820151151590565b6114e4565b51976114e4565b51926114e4565b51906113b56102eb565b9485528a8501528b840152426060840152820160019052565b8960a08201526113dc61101e565b60c08201528960e08201526113ef61101e565b610100820152610aff836000526004602052604060002090565b600080516020611ad98339815191528b611427846113a4818b6114e4565b51906114378a519283928361120d565b0390a26114ba565b87611331565b611336565b905087511438611328565b8a5181149150611322565b1561146757565b60405162461bcd60e51b8152602060048201526015602482015274082e4e4c2f240d8cadccee8d040dad2e6dac2e8c6d605b1b6044820152606490fd5b634e487b7160e01b600052601160045260246000fd5b60001981146114c95760010190565b6114a4565b634e487b7160e01b600052603260045260246000fd5b80518210156114f85760209160051b010190565b6114ce565b90602061036c928181520190610654565b91908110156114f85760051b0190565b9283926000915b80831061155a5750505014908161153a575090565b61036c9150611553906000526005602052604060002090565b5460ff1690565b919350916115a79061156d85848661150e565b358082116115b15760408051602081019384529081019190915261159e81606081015b03601f1981018352826102c5565b519020936114ba565b9091849392611525565b6040805160208101928352908101929092529061159e8160608101611590565b600052600460205260406000206115e66102eb565b906115f0816105ae565b82526115fe600182016105ae565b9260208301938452611612600283016105ae565b926040810193845261168a610b1f6003850154946060840195865261167e600760048301549261165d60ff6080890195611650828216889015159052565b60081c16151560a0890152565b611669600582016105ae565b60c0880152600681015460e0880152016105ae565b61010085015251151590565b61169d5751935192519151600194939291565b50925050506000906116ad61101e565b906116b661101e565b906116bf61101e565b90600090565b156116cc57565b60405162461bcd60e51b815260206004820152602160248201527f4f6e6c792061646d696e2063616e2063616c6c20746869732066756e6374696f6044820152603760f91b6064820152608490fd5b1561172257565b60405162461bcd60e51b815260206004820152601b60248201527f436572746966696361746520616c7265616479207265766f6b656400000000006044820152606490fd5b6040513d6000823e3d90fd5b1561177a57565b60405162461bcd60e51b8152602060048201526011602482015270496e76616c6964207369676e617475726560781b6044820152606490fd5b156117ba57565b60405162461bcd60e51b815260206004820152601160248201527029b4b3b732b9103737ba1034b9b9bab2b960791b6044820152606490fd5b156117fa57565b60405162461bcd60e51b815260206004820152600d60248201526c496e76616c6964206e6f6e636560981b6044820152606490fd5b96959194929593909384516020938491828801208851838a0120908a51848c0120918c898851878a0120604051958694898601966118b695889260c094919796959260e08501987f18f977e0d1a55aed3d0a7e8b895ae5680ee12b7648e9005cfc69f012fc9ac6b88652602086015260408501526060840152608083015260a08201520152565b0391601f199283810182526118cb90826102c5565b51902060035460405161190160f01b8682019081526002810192909252602282019290925291816042840103908101825261190690826102c5565b5190209236906119159261030b565b61191e90611a66565b6040805195865260ff919091166020860152840191909152606083015260008080529182906080905a600190fa15611a61578051600080516020611ad9833981519152976112da9590916119e7916119cd906119846001600160a01b0384161515611773565b6001600160a01b03831660009081526001602052604090206119ae906119a990611553565b6117b3565b6001600160a01b038316600090815260026020526040902054146117f3565b6001600160a01b0316600090815260026020526040902090565b6119f181546114ba565b9055611a0d610a84610a7f8b6000526004602052604060002090565b86611a166102eb565b878152948501526040840152426060840152600160808401528060a0840152611a3d61101e565b60c084015260e0830152610100820152610aff866000526004602052604060002090565b611767565b6041815103611a9c576020810151916060604083015192015160001a90601b8210611a8d57565b90601b0160ff81116114c95790565b60405162461bcd60e51b81526020600482015260146024820152730c4c2c840e6d2cedcc2e8eae4ca40d8cadccee8d60631b6044820152606490fdfe23cb08027d6cf3f884123dc2fcb28589d27c93a6efdd5273282b92e1bab97671a26469706673582212202a166b07e4872d25e8d666397a12409bfd9fd56fe82c358c553844e10e253dcc64736f6c63430008130033",
  "linkReferences": {},
  "deployedLinkReferences": {}
}