{
  "_format": "hh-sol-artifact-1",
  "contractName": "CertificateRegistry",
  "sourceName": "contracts/Certificate.sol",
  "abi": [
    {
      "inputs": [],
      "stateMutability": "nonpayable",
      "type": "constructor"
    },
    {
      "anonymous": false,
      "inputs": [
        {
          "indexed": true,
          "internalType": "bytes32",
          "name": "root",
          "type": "bytes32"
        },
        {
          "indexed": false,
          "internalType": "string",
          "name": "batchId",
          "type": "string"
        }
      ],
      "name": "BatchRootIssued",
      "type": "event"
    },
    {
      "anonymous": false,
      "inputs": [
        {
          "indexed": true,
          "internalType": "bytes32",
          "name": "certHash",
          "type": "bytes32"
        },
        {
          "indexed": false,
          "internalType": "string",
          "name": "studentId",
          "type": "string"
        },
        {
          "indexed": false,
          "internalType": "string",
          "name": "studentName",
          "type": "string"
        }
      ],
      "name": "CertificateIssued",
      "type": "event"
    },
    {
      "anonymous": false,
      "inputs": [
        {
          "indexed": true,
          "internalType": "bytes32",
          "name": "certHash",
          "type": "bytes32"
        },
        {
          "indexed": false,
          "internalType": "string",
          "name": "reason",
          "type": "string"
        }
      ],
      "name": "CertificateRevoked",
      "type": "event"
    },
    {
      "anonymous": false,
      "inputs": [
        {
          "indexed": true,
          "internalType": "bytes32",
          "name": "certHash",
          "type": "bytes32"
        },
        {
          "indexed": false,
          "internalType": "bool",
          "name": "isValid",
          "type": "bool"
        }
      ],
      "name": "CertificateVerified",
      "type": "event"
    },
    {
      "anonymous": false,
      "inputs": [
        {
          "indexed": true,
          "internalType": "address",
          "name": "account",
          "type": "address"
        }
      ],
      "name": "IssuerAdded",
      "type": "event"
    },
    {
      "anonymous": false,
      "inputs": [
        {
          "indexed": true,
          "internalType": "address",
          "name": "account",
          "type": "address"
        }
      ],
      "name": "IssuerRemoved",
      "type": "event"
    },
    {
      "inputs": [],
      "name": "CERT_TYPEHASH",
      "outputs": [
        {
          "internalType": "bytes32",
          "name": "",
          "type": "bytes32"
        }
      ],
      "stateMutability": "view",
      "type": "function"
    },
    {
      "inputs": [],
      "name": "DOMAIN_SEPARATOR",
      "outputs": [
        {
          "internalType": "bytes32",
          "name": "",
          "type": "bytes32"
        }
      ],
      "stateMutability": "view",
      "type": "function"
    },
    {
      "inputs": [],
      "name": "EIP712_DOMAIN_TYPEHASH",
      "outputs": [
        {
          "internalType": "bytes32",
          "name": "",
          "type": "bytes32"
        }
      ],
      "stateMutability": "view",
      "type": "function"
    },
    {
      "inputs": [
        {
          "internalType": "address",
          "name": "account",
          "type": "address"
        }
      ],
      "name": "addIssuer",
      "outputs": [],
      "stateMutability": "nonpayable",
      "type": "function"
    },
    {
      "inputs": [],
      "name": "admin",
      "outputs": [
        {
          "internalType": "address",
          "name": "",
          "type": "address"
        }
      ],
      "stateMutability": "view",
      "type": "function"
    },
    {
      "inputs": [
        {
          "internalType": "bytes32",
          "name": "",
          "type": "bytes32"
        }
      ],
      "name": "batchRoots",
      "outputs": [
        {
          "internalType": "bool",
          "name": "",
          "type": "bool"
        }
      ],
      "stateMutability": "view",
      "type": "function"
    },
    {
      "inputs": [
        {
          "internalType": "bytes32",
          "name": "",
          "type": "bytes32"
        }
      ],
      "name": "certificates",
      "outputs": [
        {
          "internalType": "string",
          "name": "studentId",
          "type": "string"
        },
        {
          "internalType": "string",
          "name": "studentName",
          "type": "string"
        },
        {
          "internalType": "string",
          "name": "degree",
          "type": "string"
        },
        {
          "internalType": "uint256",
          "name": "issueDate",
          "type": "uint256"
        },
        {
          "internalType": "bool",
          "name": "isIssued",
          "type": "bool"
        },
        {
          "internalType": "bool",
          "name": "revoked",
          "type": "bool"
        },
        {
          "internalType": "string",
          "name": "revokeReason",
          "type": "string"
        },
        {
          "internalType": "uint256",
          "name": "revokeDate",
          "type": "uint256"
        },
        {
          "internalType": "string",
          "name": "ipfsCid",
          "type": "string"
        }
      ],
      "stateMutability": "view",
      "type": "function"
    },
    {
      "inputs": [
        {
          "internalType": "bytes32",
          "name": "_certHash",
          "type": "bytes32"
        }
      ],
      "name": "getCertificate",
      "outputs": [
        {
          "internalType": "bool",
          "name": "",
          "type": "bool"
        },
        {
          "internalType": "string",
          "name": "",
          "type": "string"
        },
        {
          "internalType": "string",
          "name": "",
          "type": "string"
        },
        {
          "internalType": "string",
          "name": "",
          "type": "string"
        },
        {
          "internalType": "uint256",
          "name": "",
          "type": "uint256"
        },
        {
          "internalType": "bool",
          "name": "",
          "type": "bool"
        },
        {
          "internalType": "string",
          "name": "",
          "type": "string"
        },
        {
          "internalType": "uint256",
          "name": "",
          "type": "uint256"
        },
        {
          "internalType": "string",
          "name": "",
          "type": "string"
        }
      ],
      "stateMutability": "view",
      "type": "function"
    },
    {
      "inputs": [
        {
          "internalType": "address",
          "name": "account",
          "type": "address"
        }
      ],
      "name": "isIssuer",
      "outputs": [
        {
          "internalType": "bool",
          "name": "",
          "type": "bool"
        }
      ],
      "stateMutability": "view",
      "type": "function"
    },
    {
      "inputs": [
        {
          "internalType": "bytes32[]",
          "name": "_hashes",
          "type": "bytes32[]"
        },
        {
          "internalType": "string[]",
          "name": "_studentIds",
          "type": "string[]"
        },
        {
          "internalType": "string[]",
          "name": "_studentNames",
          "type": "string[]"
        },
        {
          "internalType": "string[]",
          "name": "_degrees",
          "type": "string[]"
        }
      ],
      "name": "issueBatch",
      "outputs": [],
      "stateMutability": "nonpayable",
      "type": "function"
    },
    {
      "inputs": [
        {
          "internalType": "bytes32",
          "name": "_root",
          "type": "bytes32"
        },
        {
          "internalType": "string",
          "name": "_batchId",
          "type": "string"
        }
      ],
      "name": "issueBatchRoot",
      "outputs": [],
      "stateMutability": "nonpayable",
      "type": "function"
    },
    {
      "inputs": [
        {
          "internalType": "bytes32",
          "name": "_certHash",
          "type": "bytes32"
        },
        {
          "internalType": "string",
          "name": "_studentId",
          "type": "string"
        },
        {
          "internalType": "string",
          "name": "_studentName",
          "type": "string"
        },
        {
          "internalType": "string",
          "name": "_degree",
          "type": "string"
        }
      ],
      "name": "issueCertificate",
      "outputs": [],
      "stateMutability": "nonpayable",
      "type": "function"
    },
    {
      "inputs": [
        {
          "internalType": "bytes32",
          "name": "_certHash",
          "type": "bytes32"
        },
        {
          "internalType": "string",
          "name": "_studentId",
          "type": "string"
        },
        {
          "internalType": "string",
          "name": "_studentName",
          "type": "string"
        },
        {
          "internalType": "string",
          "name": "_degree",
          "type": "string"
        },
        {
          "internalType": "string",
          "name": "_ipfsCid",
          "type": "string"
        }
      ],
      "name": "issueCertificateWithCid",
      "outputs": [],
      "stateMutability": "nonpayable",
      "type": "function"
    },
    {
      "inputs": [
        {
          "internalType": "bytes32",
          "name": "_certHash",
          "type": "bytes32"
        },
        {
          "internalType": "string",
          "name": "_studentId",
          "type": "string"
        },
        {
          "internalType": "string",
          "name": "_studentName",
          "type": "string"
        },
        {
          "internalType": "string",
          "name": "_degree",
          "type": "string"
        },
        {
          "internalType": "string",
          "name": "_ipfsCid",
          "type": "string"
        },
        {
          "internalType": "uint256",
          "name": "_nonce",
          "type": "uint256"
        },
        {
          "internalType": "bytes",
          "name": "_signature",
          "type": "bytes"
        }
      ],
      "name": "issueWithSig",
      "outputs": [],
      "stateMutability": "nonpayable",
      "type": "function"
    },
    {
      "inputs": [
        {
          "internalType": "address",
          "name": "",
          "type": "address"
        }
      ],
      "name": "issuers",
      "outputs": [
        {
          "internalType": "bool",
          "name": "",
          "type": "bool"
        }
      ],
      "stateMutability": "view",
      "type": "function"
    },
    {
      "inputs": [
        {
          "internalType": "address",
          "name": "",
          "type": "address"
        }
      ],
      "name": "nonces",
      "outputs": [
        {
          "internalType": "uint256",
          "name": "",
          "type": "uint256"
        }
      ],
      "stateMutability": "view",
      "type": "function"
    },
    {
      "inputs": [
        {
          "internalType": "address",
          "name": "account",
          "type": "address"
        }
      ],
      "name": "removeIssuer",
      "outputs": [],
      "stateMutability": "nonpayable",
      "type": "function"
    },
    {
      "inputs": [
        {
          "internalType": "bytes32",
          "name": "_certHash",
          "type": "bytes32"
        },
        {
          "internalType": "string",
          "name": "_reason",
          "type": "string"
        }
      ],
      "name": "revokeCertificate",
      "outputs": [],
      "stateMutability": "nonpayable",
      "type": "function"
    },
    {
      "inputs": [
        {
          "internalType": "bytes32",
          "name": "_certHash",
          "type": "bytes32"
        }
      ],
      "name": "simpleVerify",
      "outputs": [
        {
          "internalType": "bool",
          "name": "",
          "type": "bool"
        }
      ],
      "stateMutability": "view",
      "type": "function"
    },
    {
      "inputs": [
        {
          "internalType": "bytes32",
          "name": "_certHash",
          "type": "bytes32"
        }
      ],
      "name": "verifyCertificate",
      "outputs": [
        {
          "internalType": "bool",
          "name": "",
          "type": "bool"
        },
        {
          "internalType": "string",
          "name": "",
          "type": "string"
        },
        {
          "internalType": "string",
          "name": "",
          "type": "string"
        },
        {
          "internalType": "string",
          "name": "",
          "type": "string"
        },
        {
          "internalType": "uint256",
          "name": "",
          "type": "uint256"
        }
      ],
      "stateMutability": "view",
      "type": "function"
    },
    {
      "inputs": [
        {
          "internalType": "bytes32",
          "name": "_root",
          "type": "bytes32"
        },
        {
          "internalType": "bytes32",
          "name": "_leaf",
          "type": "bytes32"
        },
        {
          "internalType": "bytes32[]",
          "name": "_proof",
          "type": "bytes32[]"
        }
      ],
      "name": "verifyLeaf",
      "outputs": [
        {
          "internalType": "bool",
          "name": "",
          "type": "bool"
        }
      ],
      "stateMutability": "view",
      "type": "function"
    }
  ],
  "bytecode": "0x608060408181523461010857601360206000933360018060a01b031986541617855533855260018252838520600160ff1982541617905561003f8161010d565b828152017f4365727469666963617465526567697374727900000000000000000000000000815220906001602082516100778161010d565b82815201603160f81b8152209080519160208301937f8b73c3c69bb8fe3d512ecc4cf759cc79239f7b179b0ffacaa9a75d522b39400f85528284015260608301524660808301523060a083015260a0825260c082019382851060018060401b038611176100f45750839052519020600355611a4e908161013f8239f35b634e487b7160e01b81526041600452602490fd5b600080fd5b604081019081106001600160401b0382111761012857604052565b634e487b7160e01b600052604160045260246000fdfe6080604052600436101561001257600080fd5b60003560e01c806303b3500a1461016257806320694db01461015d5780633644e5151461015857806338a7543e146101305780633aa247421461015357806346f639131461014e57806347bc7093146101495780635bf4adfb14610144578063742f06881461013f5780637ecebe001461013a578063850c176814610135578063877b9a67146101305780639fef5b071461012b578063a02006e514610126578063a246b96814610121578063ab740d391461011c578063c7977be714610117578063d8e4a88a14610112578063e7a315a41461010d578063f333fe08146101085763f851a4401461010357600080fd5b610e99565b610dab565b610d17565b610ca6565b610c6b565b610b98565b6109d2565b610932565b610831565b610247565b6107c5565b610796565b61070a565b610488565b6103f7565b61036f565b61027b565b610229565b6101c4565b3461019d57600036600319011261019d5760206040517f18f977e0d1a55aed3d0a7e8b895ae5680ee12b7648e9005cfc69f012fc9ac6b88152f35b600080fd5b602090600319011261019d576004356001600160a01b038116810361019d5790565b3461019d576101d2366101a2565b60018060a01b036000916101ea82845416331461160d565b16808252600160205260408220600160ff198254161790557f05e7c881d716bee8cb7ed92293133ba156704252439e5c502c277448f04e20c28280a280f35b3461019d57600036600319011261019d576020600354604051908152f35b3461019d576001600160a01b0361025d366101a2565b166000526001602052602060ff604060002054166040519015158152f35b3461019d57602036600319011261019d576004356000526004602052602060ff600460406000200154166040519015158152f35b634e487b7160e01b600052604160045260246000fd5b90601f801991011681019081106001600160401b038211176102e657604052565b6102af565b6040519061012082018281106001600160401b038211176102e657604052565b9291926001600160401b0382116102e65760405191610334601f8201601f1916602001846102c5565b82948184528183011161019d578281602093846000960137010152565b9080601f8301121561019d5781602061036c9335910161030b565b90565b3461019d5760a036600319011261019d576001600160401b0360243581811161019d576103a0903690600401610351565b60443582811161019d576103b8903690600401610351565b60643583811161019d576103d0903690600401610351565b9060843593841161019d576103ec6103f5943690600401610351565b92600435611179565b005b3461019d57610405366101a2565b60018060a01b0360009161041d82845416331461160d565b16808252600160205260408220805460ff191690557faf66545c919a3be306ee446d8f42a9558b5b022620df880517bc9593ec0f2d528280a280f35b90604060031983011261019d5760043591602435906001600160401b03821161019d5761036c91600401610351565b3461019d5761049636610459565b6104ab60018060a01b0360005416331461160d565b816000526004602052604060002090600482019081549260ff841615610536576105126105319361050360ff7f6a67f6498e0156955d3a658d7124084b43548b0eaa26ee2105ccf42059efe1129760081c1615611663565b805461ff001916610100179055565b61051f8260058301610fdc565b60064291015560405191829182611445565b0390a2005b60405162461bcd60e51b815260206004820152601660248201527510d95c9d1a599a58d85d19481b9bdd081a5cdcdd595960521b6044820152606490fd5b90600182811c921680156105a4575b602083101461058e57565b634e487b7160e01b600052602260045260246000fd5b91607f1691610583565b90604051918260008254926105c284610574565b90818452600194858116908160001461063157506001146105ee575b50506105ec925003836102c5565b565b9093915060005260209081600020936000915b8183106106195750506105ec935082010138806105de565b85548884018501529485019487945091830191610601565b9150506105ec94506020925060ff191682840152151560051b82010138806105de565b919082519283825260005b848110610680575050826000602080949584010152601f8019910116010190565b60208183018101518483018201520161065f565b959161036c9997936106c76106d5926106b96106f69995610120808d528c0190610654565b908a820360208c0152610654565b9088820360408a0152610654565b93606087015215156080860152151560a085015283820360c0850152610654565b9260e0820152610100818403910152610654565b3461019d57602036600319011261019d5760043560005260046020526040600020610734816105ae565b610792610743600184016105ae565b91610750600285016105ae565b936003810154916004820154610768600584016105ae565b9161077a6007600686015495016105ae565b9460405198899860ff808660081c169516938a610694565b0390f35b3461019d576001600160a01b036107ac366101a2565b1660005260026020526020604060002054604051908152f35b3461019d57602036600319011261019d576108196108276107e7600435611519565b93949295909161080b6040519788971515885260a0602089015260a0880190610654565b908682036040880152610654565b908482036060860152610654565b9060808301520390f35b3461019d5761083f36610459565b90600091338352600160205261085b60ff604085205416610ec2565b818352600560205260ff6040842054166108ca576108c47f7d9f33e0c9946a95c11864ca04df3e2dfebc5d4d9a43bd0fe5b3662386a81ad9916108b86108ab856000526005602052604060002090565b805460ff19166001179055565b60405191829182611445565b0390a280f35b60405162461bcd60e51b8152602060048201526013602482015272149bdbdd08185b1c9958591e481a5cdcdd5959606a1b6044820152606490fd5b9181601f8401121561019d578235916001600160401b03831161019d576020838186019501011161019d57565b3461019d5760e036600319011261019d576001600160401b0360243581811161019d5761096460049136908301610351565b60443583811161019d5761097b9036908401610351565b9160643584811161019d576109939036908301610351565b60843585811161019d576109aa9036908401610351565b9060c43595861161019d576109c56103f59636908501610905565b95909460a4359435611777565b3461019d57608036600319011261019d57600480356001600160401b0360243581811161019d57610a069036908501610351565b60443582811161019d57610a1d9036908601610351565b9060643592831161019d57610af2610a476000805160206119f98339815191529436908801610351565b610a88610a83610a7f600099338b526001602052610a6b60ff60408d205416610ec2565b898b528060205260408b200160ff90541690565b1590565b610f19565b610a906102eb565b908382528460208301526040820152426060820152610ab26080820160019052565b8660a0820152610ac0610f65565b60c08201528660e0820152610ad3610f65565b610100820152610aed866000526004602052604060002090565b6110aa565b6108c460405192839283611154565b6001600160401b0381116102e65760051b60200190565b9080601f8301121561019d57813590610b3082610b01565b92610b3e60405194856102c5565b828452602092838086019160051b8301019280841161019d57848301915b848310610b6c5750505050505090565b82356001600160401b03811161019d578691610b8d84848094890101610351565b815201920191610b5c565b3461019d57608036600319011261019d576001600160401b0360043581811161019d573660238201121561019d578060040135610bd481610b01565b91610be260405193846102c5565b81835260209160248385019160051b8301019136831161019d57602401905b828210610c5c57858560243582811161019d57610c22903690600401610b18565b60443583811161019d57610c3a903690600401610b18565b9060643593841161019d57610c566103f5943690600401610b18565b92611238565b81358152908301908301610c01565b3461019d57600036600319011261019d5760206040517f8b73c3c69bb8fe3d512ecc4cf759cc79239f7b179b0ffacaa9a75d522b39400f8152f35b3461019d57606036600319011261019d576001600160401b0360443581811161019d573660238201121561019d57806004013591821161019d573660248360051b8301011161019d57610792916024610d059201602435600435611466565b60405190151581529081906020820190565b3461019d57602036600319011261019d576004356000526005602052602060ff604060002054166040519015158152f35b959193610d8361036c9a9894610d756106f69897610d919515158b526101208060208d01528b0190610654565b9089820360408b0152610654565b908782036060890152610654565b926080860152151560a085015283820360c0850152610654565b3461019d57602036600319011261019d5760043560005260046020526040600020610dd46102eb565b610ddd826105ae565b8152610792610dee600184016105ae565b9260208301938452610e02600282016105ae565b60408401908152600382015460608501908152600483015460ff811615156080870190815293919060081c60ff16151560a08701908152610e45600584016105ae565b9160c08801928352610e88610e79610e6b600760068801549760e08d01988952016105ae565b97886101008c015251151590565b98519951955191519251151590565b9251935194604051998a998a610d48565b3461019d57600036600319011261019d576000546040516001600160a01b039091168152602090f35b15610ec957565b60405162461bcd60e51b815260206004820152602260248201527f4f6e6c79206973737565722063616e2063616c6c20746869732066756e63746960448201526137b760f11b6064820152608490fd5b15610f2057565b60405162461bcd60e51b815260206004820152601a60248201527f436572746966696361746520616c7265616479206973737565640000000000006044820152606490fd5b60405190602082018281106001600160401b038211176102e65760405260008252565b90601f8111610f9657505050565b600091825260208220906020601f850160051c83019410610fd2575b601f0160051c01915b828110610fc757505050565b818155600101610fbb565b9092508290610fb2565b91909182516001600160401b0381116102e65761100381610ffd8454610574565b84610f88565b602080601f831160011461103f575081929394600092611034575b50508160011b916000199060031b1c1916179055565b01519050388061101e565b90601f1983169561105585600052602060002090565b926000905b88821061109257505083600195969710611079575b505050811b019055565b015160001960f88460031b161c1916905538808061106f565b8060018596829496860151815501950193019061105a565b60076101006105ec936110be815185610fdc565b6110cf602082015160018601610fdc565b6110e0604082015160028601610fdc565b60608101516003850155611130600485016111136111016080850151151590565b829060ff801983541691151516179055565b60a08301511515815461ff00191690151560081b61ff0016179055565b61114160c082015160058601610fdc565b60e0810151600685015501519101610fdc565b909161116b61036c93604084526040840190610654565b916020818403910152610654565b936000805160206119f98339815191529361122491600033815260016020526111a860ff604083205416610ec2565b87815260046020526111c8610a83610a7f6004604085200160ff90541690565b6111d06102eb565b9285845286602085015260408401524260608401526111f26080840160019052565b8060a0840152611200610f65565b60c084015260e0830152610100820152610aed866000526004602052604060002090565b61123360405192839283611154565b0390a2565b9290919260009333855260019360209385855260409361125d60ff868a205416610ec2565b611279815184518114908161139d575b81611392575b506113a8565b87875b61128c575b505050505050505050565b815181101561138d57806112a3611387928461142c565b516112cb610a83610a7f60046112c3856000526004602052604060002090565b015460ff1690565b61134b6112d8838861142c565b516112e3848a61142c565b516112ee858961142c565b51906112f86102eb565b9283528c8301528a820152426060820152600160808201528c60a082015261131e610f65565b60c08201528c60e0820152611331610f65565b610100820152610aed836000526004602052604060002090565b6000805160206119f9833981519152611364838861142c565b5161136f848a61142c565b519061137f8b5192839283611154565b0390a2611402565b8761127c565b611281565b905083511438611273565b86518114915061126d565b156113af57565b60405162461bcd60e51b8152602060048201526015602482015274082e4e4c2f240d8cadccee8d040dad2e6dac2e8c6d605b1b6044820152606490fd5b634e487b7160e01b600052601160045260246000fd5b60001981146114115760010190565b6113ec565b634e487b7160e01b600052603260045260246000fd5b80518210156114405760209160051b010190565b611416565b90602061036c928181520190610654565b91908110156114405760051b0190565b9283926000915b8083106114a257505050149081611482575090565b61036c915061149b906000526005602052604060002090565b5460ff1690565b919350916114ef906114b5858486611456565b358082116114f9576040805160208101938452908101919091526114e681606081015b03601f1981018352826102c5565b51902093611402565b909184939261146d565b604080516020810192835290810192909252906114e681606081016114d8565b6000526004602052604060002061152e6102eb565b90611538816105ae565b8252611546600182016105ae565b926020830193845261155a600283016105ae565b92604081019384526115d2610a7f600385015494606084019586526115c660076004830154926115a560ff6080890195611598828216889015159052565b60081c16151560a0890152565b6115b1600582016105ae565b60c0880152600681015460e0880152016105ae565b61010085015251151590565b6115e55751935192519151600194939291565b50925050506000906115f5610f65565b906115fe610f65565b90611607610f65565b90600090565b1561161457565b60405162461bcd60e51b815260206004820152602160248201527f4f6e6c792061646d696e2063616e2063616c6c20746869732066756e6374696f6044820152603760f91b6064820152608490fd5b1561166a57565b60405162461bcd60e51b815260206004820152601b60248201527f436572746966696361746520616c7265616479207265766f6b656400000000006044820152606490fd5b6040513d6000823e3d90fd5b156116c257565b60405162461bcd60e51b8152602060048201526011602482015270496e76616c6964207369676e617475726560781b6044820152606490fd5b1561170257565b60405162461bcd60e51b815260206004820152601160248201527029b4b3b732b9103737ba1034b9b9bab2b960791b6044820152606490fd5b1561174257565b60405162461bcd60e51b815260206004820152600d60248201526c496e76616c6964206e6f6e636560981b6044820152606490fd5b96959194929593909384516020938491828801208851838a0120908a51848c0120918c898851878a0120604051958694898601966117fe95889260c094919796959260e08501987f18f977e0d1a55aed3d0a7e8b895ae5680ee12b7648e9005cfc69f012fc9ac6b88652602086015260408501526060840152608083015260a08201520152565b0391601f1992838101825261181390826102c5565b51902060035460405161190160f01b8682019081526002810192909252602282019290925291816042840103908101825261184e90826102c5565b51902092369061185d9261030b565b61186690611986565b6040805195865260ff919091166020860152840191909152606083015260008080529182906080905a600190fa156119815780516000805160206119f98339815191529761122495909161192f91611915906118cc6001600160a01b03841615156116bb565b6001600160a01b03831660009081526001602052604090206118f6906118f19061149b565b6116fb565b6001600160a01b0383166000908152600260205260409020541461173b565b6001600160a01b0316600090815260026020526040902090565b6119398154611402565b905561195a610a83610a7f60046112c38d6000526004602052604060002090565b866119636102eb565b878152948501526040840152426060840152600160808401526111f2565b6116af565b60418151036119bc576020810151916060604083015192015160001a90601b82106119ad57565b90601b0160ff81116114115790565b60405162461bcd60e51b81526020600482015260146024820152730c4c2c840e6d2cedcc2e8eae4ca40d8cadccee8d60631b6044820152606490fdfe23cb08027d6cf3f884123dc2fcb28589d27c93a6efdd5273282b92e1bab97671a264697066735822122057e4733c70247da4b999dd482f3df755a1b420cdb52c27274177b26109bcd09864736f6c63430008130033",
  "linkReferences": {},
  "deployedLinkReferences": {}
}